{
  "contracts/SmartHomeAi.sol": {
    "SmartHomeAi": {
      "abi": [
        {
          "inputs": [
            {
              "internalType": "address",
              "name": "initialOracleAddress",
              "type": "address"
            },
            {
              "internalType": "contract SmartHomeRegistry",
              "name": "registryRegistry",
              "type": "address"
            }
          ],
          "stateMutability": "nonpayable",
          "type": "constructor"
        },
        {
          "inputs": [
            {
              "internalType": "address",
              "name": "owner",
              "type": "address"
            }
          ],
          "name": "OwnableInvalidOwner",
          "type": "error"
        },
        {
          "inputs": [
            {
              "internalType": "address",
              "name": "account",
              "type": "address"
            }
          ],
          "name": "OwnableUnauthorizedAccount",
          "type": "error"
        },
        {
          "anonymous": false,
          "inputs": [
            {
              "indexed": true,
              "internalType": "uint256",
              "name": "runId",
              "type": "uint256"
            },
            {
              "indexed": false,
              "internalType": "bool",
              "name": "isError",
              "type": "bool"
            },
            {
              "indexed": false,
              "internalType": "string",
              "name": "message",
              "type": "string"
            }
          ],
          "name": "OracleResponse",
          "type": "event"
        },
        {
          "anonymous": false,
          "inputs": [
            {
              "indexed": true,
              "internalType": "address",
              "name": "previousOwner",
              "type": "address"
            },
            {
              "indexed": true,
              "internalType": "address",
              "name": "newOwner",
              "type": "address"
            }
          ],
          "name": "OwnershipTransferred",
          "type": "event"
        },
        {
          "anonymous": false,
          "inputs": [
            {
              "indexed": true,
              "internalType": "uint256",
              "name": "runId",
              "type": "uint256"
            },
            {
              "indexed": false,
              "internalType": "string",
              "name": "userMessage",
              "type": "string"
            },
            {
              "indexed": false,
              "internalType": "string",
              "name": "dbMessage",
              "type": "string"
            },
            {
              "indexed": false,
              "internalType": "string",
              "name": "fullMessage",
              "type": "string"
            }
          ],
          "name": "SendMessage",
          "type": "event"
        },
        {
          "inputs": [
            {
              "internalType": "uint256",
              "name": "runId",
              "type": "uint256"
            }
          ],
          "name": "getMessageHistory",
          "outputs": [
            {
              "components": [
                {
                  "internalType": "string",
                  "name": "role",
                  "type": "string"
                },
                {
                  "components": [
                    {
                      "internalType": "string",
                      "name": "contentType",
                      "type": "string"
                    },
                    {
                      "internalType": "string",
                      "name": "value",
                      "type": "string"
                    }
                  ],
                  "internalType": "struct IOracle.Content[]",
                  "name": "content",
                  "type": "tuple[]"
                }
              ],
              "internalType": "struct IOracle.Message[]",
              "name": "",
              "type": "tuple[]"
            }
          ],
          "stateMutability": "view",
          "type": "function"
        },
        {
          "inputs": [
            {
              "internalType": "uint256",
              "name": "runId",
              "type": "uint256"
            },
            {
              "components": [
                {
                  "internalType": "string",
                  "name": "id",
                  "type": "string"
                },
                {
                  "internalType": "string",
                  "name": "content",
                  "type": "string"
                },
                {
                  "internalType": "string",
                  "name": "functionName",
                  "type": "string"
                },
                {
                  "internalType": "string",
                  "name": "functionArguments",
                  "type": "string"
                },
                {
                  "internalType": "uint64",
                  "name": "created",
                  "type": "uint64"
                },
                {
                  "internalType": "string",
                  "name": "model",
                  "type": "string"
                },
                {
                  "internalType": "string",
                  "name": "systemFingerprint",
                  "type": "string"
                },
                {
                  "internalType": "string",
                  "name": "object",
                  "type": "string"
                },
                {
                  "internalType": "uint32",
                  "name": "completionTokens",
                  "type": "uint32"
                },
                {
                  "internalType": "uint32",
                  "name": "promptTokens",
                  "type": "uint32"
                },
                {
                  "internalType": "uint32",
                  "name": "totalTokens",
                  "type": "uint32"
                }
              ],
              "internalType": "struct IOracle.OpenAiResponse",
              "name": "_response",
              "type": "tuple"
            },
            {
              "internalType": "string",
              "name": "_errorMessage",
              "type": "string"
            }
          ],
          "name": "onOracleOpenAiLlmResponse",
          "outputs": [],
          "stateMutability": "nonpayable",
          "type": "function"
        },
        {
          "inputs": [],
          "name": "oracleAddress",
          "outputs": [
            {
              "internalType": "address",
              "name": "",
              "type": "address"
            }
          ],
          "stateMutability": "view",
          "type": "function"
        },
        {
          "inputs": [],
          "name": "owner",
          "outputs": [
            {
              "internalType": "address",
              "name": "",
              "type": "address"
            }
          ],
          "stateMutability": "view",
          "type": "function"
        },
        {
          "inputs": [],
          "name": "postMessage",
          "outputs": [
            {
              "internalType": "string",
              "name": "",
              "type": "string"
            }
          ],
          "stateMutability": "view",
          "type": "function"
        },
        {
          "inputs": [],
          "name": "preMessage",
          "outputs": [
            {
              "internalType": "string",
              "name": "",
              "type": "string"
            }
          ],
          "stateMutability": "view",
          "type": "function"
        },
        {
          "inputs": [],
          "name": "registry",
          "outputs": [
            {
              "internalType": "contract SmartHomeRegistry",
              "name": "",
              "type": "address"
            }
          ],
          "stateMutability": "view",
          "type": "function"
        },
        {
          "inputs": [],
          "name": "renounceOwnership",
          "outputs": [],
          "stateMutability": "nonpayable",
          "type": "function"
        },
        {
          "inputs": [
            {
              "internalType": "string",
              "name": "_message",
              "type": "string"
            }
          ],
          "name": "sendMessage",
          "outputs": [
            {
              "internalType": "uint256",
              "name": "runId",
              "type": "uint256"
            }
          ],
          "stateMutability": "nonpayable",
          "type": "function"
        },
        {
          "inputs": [
            {
              "internalType": "string",
              "name": "newMessage",
              "type": "string"
            }
          ],
          "name": "setPostMessage",
          "outputs": [],
          "stateMutability": "nonpayable",
          "type": "function"
        },
        {
          "inputs": [
            {
              "internalType": "string",
              "name": "newMessage",
              "type": "string"
            }
          ],
          "name": "setPreMessage",
          "outputs": [],
          "stateMutability": "nonpayable",
          "type": "function"
        },
        {
          "inputs": [
            {
              "internalType": "address",
              "name": "newOwner",
              "type": "address"
            }
          ],
          "name": "transferOwnership",
          "outputs": [],
          "stateMutability": "nonpayable",
          "type": "function"
        }
      ],
      "evm": {
        "bytecode": {
          "linkReferences": {},
          "object": "60c03462000bf55762002e3d90601f38839003908101601f19168201906001600160401b0382118383101762000651578083916040958694855283398101031262000bf55780516001600160a01b0391828216820362000bf5576020015191808316830362000bf557331562000bdd5760008054336001600160a01b03198216811783559216907f8be0079c531659141344cd1fd0a4f28419497f9722a3daafe3b4186f6b6457e09080a360805260a0528051906101a082016001600160401b0381118382101762000651578152620000d762000bfa565b600b81526a6770742d342d747572626f60a81b60208201528252601560208301526200010262000c1a565b60008152818301526103e86060830152601560808301526200012362000bfa565b600f81526e7b2274797065223a2274657874227d60881b602082015260a0830152600060c08301526200015562000c1a565b6000815260e0830152600a61010083015260656101208301526200017862000c1a565b600081526101408301526200018c62000c1a565b60008152610160830152620001a062000c1a565b60008152610180830152815180519092906001600160401b0381116200065157600154600181811c9116801562000bd2575b60208210146200063057601f811162000b6c575b506020601f821160011462000afd578192939460009262000af1575b50508160011b916000199060031b1c1916176001555b602081015160ff19600254169060ff16176002558181015191825160018060401b0381116200065157600354600181811c9116801562000ae6575b60208210146200063057601f811162000a80575b506020601f821160011462000a11578192939460009262000a05575b50508160011b916000199060031b1c1916176003555b63ffffffff60608301511660045490608084015160201b64ff00000000169164ffffffffff1916171760045560a082015191825160018060401b0381116200065157600554600181811c91168015620009fa575b60208210146200063057601f8111620009b0575b506020601f821160011462000941578192939460009262000935575b50508160011b916000199060031b1c1916176005555b60c081015160065560e081015180519092906001600160401b0381116200065157600754600181811c911680156200092a575b60208210146200063057601f8111620008c4575b506020601f821160011462000855578192939460009262000849575b50508160011b916000199060031b1c1916176007555b61010082015160085561012082015160095561014082015180519092906001600160401b0381116200065157600a54600181811c911680156200083e575b60208210146200063057601f8111620007d8575b506020601f82116001146200076957819293946000926200075d575b50508160011b916000199060031b1c191617600a555b6101608101518051906001600160401b0382116200065157600b54600181811c9116801562000752575b60208210146200063057601f8111620006e8575b50602090601f831160011462000673576101809392916000918362000667575b50508160011b916000199060031b1c191617600b555b015180519091906001600160401b0381116200065157600c54600181811c9116801562000646575b60208210146200063057601f8111620005c6575b50602092601f82116001146200055b57928192936000926200054f575b50508160011b916000199060031b1c191617600c555b51612202908162000c3b82396080518181816104c001528181610a530152611543015260a0518181816105c001528181610ce901526111710152f35b015190503880620004fd565b601f19821693600c60005260206000209160005b868110620005ad575083600195961062000593575b505050811b01600c5562000513565b015160001960f88460031b161c1916905538808062000584565b919260206001819286850151815501940192016200056f565b600c6000527fdf6966c971051c3d54ec59162606531493a51404a002842f56009d7e5cf4a8c7601f830160051c8101916020841062000625575b601f0160051c01905b818110620006185750620004e0565b6000815560010162000609565b909150819062000600565b634e487b7160e01b600052602260045260246000fd5b90607f1690620004cc565b634e487b7160e01b600052604160045260246000fd5b0151905038806200048e565b90600b60005260206000209160005b601f1985168110620006cf57509183916001936101809695601f19811610620006b5575b505050811b01600b55620004a4565b015160001960f88460031b161c19169055388080620006a6565b9192602060018192868501518155019401920162000682565b600b6000527f0175b7a638427703f0dbe7bb9bbf987a2551717b34e79f33b5b1008d1fa01db9601f840160051c8101916020851062000747575b601f0160051c01905b8181106200073a57506200046e565b600081556001016200072b565b909150819062000722565b90607f16906200045a565b0151905038806200041a565b600a60005260206000209060005b601f1984168110620007bf5750600193949583601f19811610620007a5575b505050811b01600a5562000430565b015160001960f88460031b161c1916905538808062000796565b9091602060018192858a01518155019301910162000777565b600a6000527fc65a7bb8d6351c1cf70c95a316cc6a92839c986682d98bc35f958f4883f9d2a8601f830160051c81016020841062000836575b601f830160051c8201811062000829575050620003fe565b6000815560010162000811565b508062000811565b90607f1690620003ea565b01519050388062000396565b600760005260206000209060005b601f1984168110620008ab5750600193949583601f1981161062000891575b505050811b01600755620003ac565b015160001960f88460031b161c1916905538808062000882565b9091602060018192858a01518155019301910162000863565b60076000527fa66cc928b5edb82af9bd49922954155ab7b0942694bea4ce44661d9a8736c688601f830160051c81016020841062000922575b601f830160051c82018110620009155750506200037a565b60008155600101620008fd565b5080620008fd565b90607f169062000366565b0151905038806200031d565b600560005260206000209060005b601f1984168110620009975750600193949583601f198116106200097d575b505050811b0160055562000333565b015160001960f88460031b161c191690553880806200096e565b9091602060018192858a0151815501930191016200094f565b60056000526020600020601f830160051c810160208410620009f2575b601f830160051c82018110620009e557505062000301565b60008155600101620009cd565b5080620009cd565b90607f1690620002ed565b01519050388062000283565b600360005260206000209060005b601f198416811062000a675750600193949583601f1981161062000a4d575b505050811b0160035562000299565b015160001960f88460031b161c1916905538808062000a3e565b9091602060018192858a01518155019301910162000a1f565b60036000527fc2575a0e9e593c00f959f8c92f12db2869c3395a3b0502d05e2516446f71f85b601f830160051c81016020841062000ade575b601f830160051c8201811062000ad157505062000267565b6000815560010162000ab9565b508062000ab9565b90607f169062000253565b01519050388062000202565b600160005260206000209060005b601f198416811062000b535750600193949583601f1981161062000b39575b505050811b0160015562000218565b015160001960f88460031b161c1916905538808062000b2a565b9091602060018192858a01518155019301910162000b0b565b60016000527fb10e2d527612073b26eecdfd717e6a320cf44b4afac2b0732d9fcbe2b7fa0cf6601f830160051c81016020841062000bca575b601f830160051c8201811062000bbd575050620001e6565b6000815560010162000ba5565b508062000ba5565b90607f1690620001d2565b8351631e4fbdf760e01b815260006004820152602490fd5b600080fd5b60408051919082016001600160401b038111838210176200065157604052565b60405190602082016001600160401b03811183821017620006515760405256fe6080604052600436101561001257600080fd5b6000803560e01c8063469c8110146111295780634cecd88e1461087c57806354a470fc14610649578063715018a6146105ef5780637b103999146105aa5780637be14234146105165780638da5cb5b146104ef578063a89ae4ba146104aa578063bc5147be1461036b578063dceae6181461020d578063ddaaff2a146101395763f2fde38b146100a157600080fd5b34610136576020366003190112610136576004356001600160a01b0381811691829003610132576100d061201a565b811561011957600054826bffffffffffffffffffffffff60a01b821617600055167f8be0079c531659141344cd1fd0a4f28419497f9722a3daafe3b4186f6b6457e0600080a380f35b604051631e4fbdf760e01b815260048101849052602490fd5b8280fd5b80fd5b50346101365780600319360112610136576040516000600f5461015b81611f4a565b808452906001908181169081156101e6575060011461019d575b6101998461018581860382611e69565b604051918291602083526020830190611f25565b0390f35b600f600090815292506000805160206121ad8339815191525b8284106101ce57505050810160200161018582610175565b805460208587018101919091529093019281016101b6565b60ff191660208087019190915292151560051b850190920192506101859150839050610175565b50346101365760209081600319360112610136576001600160401b0360043581811161013257610241903690600401611ea5565b9261024a61201a565b83519182116103575761025e600f54611f4a565b601f8111610311575b5080601f83116001146102a257508293829392610297575b50508160011b916000199060031b1c191617600f5580f35b01519050388061027f565b600f8452601f198316946000805160206121ad833981519152929185905b8782106102f95750508360019596106102e0575b505050811b01600f5580f35b015160001960f88460031b161c191690553880806102d4565b806001859682949686015181550195019301906102c0565b61034790600f85526000805160206121ad833981519152601f850160051c81019184861061034d575b601f0160051c0190612046565b38610267565b909150819061033a565b634e487b7160e01b83526041600452602483fd5b50346101365760209081600319360112610136576001600160401b036004358181116101325761039f903690600401611ea5565b926103a861201a565b8351918211610357576103bc601054611f4a565b601f811161046f575b5080601f8311600114610400575082938293926103f5575b50508160011b916000199060031b1c19161760105580f35b0151905038806103dd565b60108452601f1983169460008051602061218d833981519152929185905b87821061045757505083600195961061043e575b505050811b0160105580f35b015160001960f88460031b161c19169055388080610432565b8060018596829496860151815501950193019061041e565b6104a4906010855260008051602061218d833981519152601f850160051c81019184861061034d57601f0160051c0190612046565b386103c5565b50346101365780600319360112610136576040517f00000000000000000000000000000000000000000000000000000000000000006001600160a01b03168152602090f35b5034610136578060031936011261013657546040516001600160a01b039091168152602090f35b5034610136578060031936011261013657604051600060105461053881611f4a565b808452906001908181169081156101e65750600114610561576101998461018581860382611e69565b60106000908152925060008051602061218d8339815191525b82841061059257505050810160200161018582610175565b8054602085870181019190915290930192810161057a565b50346101365780600319360112610136576040517f00000000000000000000000000000000000000000000000000000000000000006001600160a01b03168152602090f35b503461013657806003193601126101365761060861201a565b600080546001600160a01b0319811682556001600160a01b03167f8be0079c531659141344cd1fd0a4f28419497f9722a3daafe3b4186f6b6457e08280a380f35b503461013657602090816003193601126101365760405161066981611e4e565b60019283825280835b8181106108665750506004358352600d81526040832090846040519261069784611e4e565b6040516106af816106a88185611f84565b0382611e69565b8452019182546001600160401b03811161085057928591879394604051906005936106de8883871b0184611e69565b818352855286852085908884015b8383106107fa575050505085820152610704866120e4565b5261070e856120e4565b50604051938085019181865286518093526040860182604085841b89010198019480925b85841061073f57888a0389f35b909192939495968099603f198a820301855286895191816107698451604084526040840190611f25565b9301519082818503910152805180845282840190838082891b870101930194885b878382106107ae575050505050819250990194019401929594939190989698610732565b9193956107e881929496601f19878203018952895190836107d88351604084526040840190611f25565b9201519084818403910152611f25565b970195019101918b949593919261078a565b9760028a829c9a60409c999a9c5161081181611e4e565b604051610822816106a8818a611f84565b8152604051610837816106a881898b01611f84565b83820152815201920192019190999799989695986106ec565b634e487b7160e01b600052604160045260246000fd5b61086e6120cb565b828286010152018190610672565b503461013657600319606036820112611125576024356001600160401b0381116101325761016080928236030112610132576040519182018281106001600160401b038211176111115760405280600401356001600160401b03811161110d576108ec9060043691840101611ea5565b825260248101356001600160401b03811161110d576109119060043691840101611ea5565b602083015260448101356001600160401b03811161110d576109399060043691840101611ea5565b604083015260648101356001600160401b03811161110d576109619060043691840101611ea5565b606083015260848101356001600160401b038116810361110d57608083015260a48101356001600160401b03811161110d576109a39060043691840101611ea5565b60a083015260c48101356001600160401b03811161110d576109cb9060043691840101611ea5565b60c083015260e48101356001600160401b03811161110d57610a2b916109fa6101449260043691840101611ea5565b60e0850152610a0c6101048201611ef1565b610100850152610a1f6101248201611ef1565b61012085015201611ef1565b6101408201526044356001600160401b03811161013257610a50903690600401611ea5565b907f00000000000000000000000000000000000000000000000000000000000000006001600160a01b031633036110d157815183919015610c0d575050906001915b60043590818352600e60205260408320938151946001600160401b038611610bf957610abe8154611f4a565b601f8111610bc9575b50602095601f8111600114610b45578086977fddc172d65d303fcd5ed22c1c42a67084cec02f5f4bc98db80f48cb658f941a9e969791610b3a575b508160011b916000199060031b1c19161790555b610b3460405192839215158352604060208401526040830190611f25565b0390a280f35b905084015138610b02565b8186526020862096601f198216875b818110610bb157509782916001937fddc172d65d303fcd5ed22c1c42a67084cec02f5f4bc98db80f48cb658f941a9e98999a10610b98575b5050811b019055610b16565b86015160001960f88460031b161c191690553880610b8c565b868301518a5560019099019860209283019201610b54565b610bf39082875260208720601f890160051c81019160208a1061034d57601f0160051c0190612046565b38610ac7565b634e487b7160e01b85526041600452602485fd5b90929150602081015190610c40604051610c2681611e4e565b60078152662a23a627a7a71d60c91b602082015283612118565b90610c6a604051610c5081611e4e565b60078152662a23a627a3231d60c91b602082015284612118565b829083156110c9575b50610c80575b5050610a92565b9093825192836007101561109257610c978461217d565b93610ca185611e8a565b94610caf6040519687611e69565b808652610cbe601f1991611e8a565b0136602087013760075b818110611058575050602a84510361101a578460025b602a8110610e8d57507f00000000000000000000000000000000000000000000000000000000000000006001600160a01b031690813b15610e89576040516377c43b8360e11b81526001600160a01b03909116600482015287151560248201529086908290604490829084905af19081610e5a575b50610e505750506028610e20913d600014610e4b573d610d7281611e8a565b90610d806040519283611e69565b81528560203d92013e5b60019515610e27576020604051610da081611e4e565b600381526213d38b60ea1b82820152915b015160405194859265022b93937b9160d51b6020850152610ddc815180926020602688019101611f02565b8301610df2825180936020602685019101611f02565b016101d160f51b6026820152610e118251809360208785019101611f02565b01036008810184520182611e69565b3880610c79565b6020604051610e3581611e4e565b600481526313d1918b60e21b8282015291610db1565b610d8a565b9250935050610e20565b6001600160401b038197929711610e75576040529438610d53565b634e487b7160e01b82526041600452602482fd5b8680fd5b90610e988287612107565b5160f81c60308110158061100f575b15610f36576001600160a01b03908116602f1901908111610f22575b600482901b6010600160a01b0316916001600160a01b031680159083046010141715610f22576001600160a01b0390811691909101908111610f0e57610f09909161205d565b610cde565b634e487b7160e01b87526011600452602487fd5b634e487b7160e01b88526011600452602488fd5b604181101580611004575b15610f71576001600160a01b039081166036190190811115610ec357634e487b7160e01b88526011600452602488fd5b606181101580610ff9575b15610fa857605619016001600160a01b03811115610ec357634e487b7160e01b88526011600452602488fd5b60405162461bcd60e51b815260206004820152602360248201527f496e76616c69642063686172616374657220696e206164647265737320737472604482015262696e6760e81b6064820152608490fd5b506066811115610f7c565b506046811115610f41565b506039811115610ea7565b60405162461bcd60e51b8152602060048201526016602482015275092dcecc2d8d2c840c2c8c8e4cae6e640d8cadccee8d60531b6044820152606490fd5b61108d906001600160f81b031961106f8286612107565b511661108761107d8361217d565b918a1a9189612107565b5361205d565b610cc8565b60405162461bcd60e51b815260206004820152600f60248201526e496e76616c696420696e646963657360881b6044820152606490fd5b905038610c73565b60405162461bcd60e51b815260206004820152601460248201527343616c6c6572206973206e6f74206f7261636c6560601b6044820152606490fd5b8380fd5b634e487b7160e01b84526041600452602484fd5b5080fd5b5034610136576020366003190112610136576004356001600160401b0381116111255761115a903690600401611ea5565b60405163603e999560e11b815290919081816004817f00000000000000000000000000000000000000000000000000000000000000006001600160a01b03165afa90811561160e578291611dd4575b506040519082600f546111bb81611f4a565b9060018116908115611db95750600114611d78575b508151906111e2828260208601611f02565b018284601054926111f284611f4a565b9360018116908115611d605750600114611d1d575b5061122d925086519061121e828260208b01611f02565b0103601f198101845283611e69565b6040519261123a84611e4e565b60048452633ab9b2b960e11b60208501526112536120cb565b506040519361126185611e4e565b60018552815b60208110611d0657506040519061127d82611e4e565b815261128f60208201958087526120e4565b516040519061129d82611e4e565b60048252631d195e1d60e21b6020830152528360206112bc87516120e4565b510152601154946112cc8661205d565b601155858352600d6020526040832091518051906001600160401b038211610bf95781906112fa8554611f4a565b601f8111611cd6575b50602090601f8311600114611c72578692611c67575b50508160011b916000199060031b1c19161782555b5190815191680100000000000000008311611111576001820154836001840155808410611be4575b50602060019101910183526020832083915b8383106119975750505050604051633c38a5f560e01b8152846004820152604060248201526101a06044820152816001546113a281611f4a565b90816101e485015260018116908160001461197a5750600114611923575b50600254830b60648301528160431991828282030160848301528490600354906113e982611f4a565b808252916001811690811561190457506001146118a6575b505060045463ffffffff811660a484015260201c850b60c4830152828282030160e4830152849260059182549061143782611f4a565b80825291600181169081156118865750600114611823575b50506006546101048401528284038101610124840152600754869461147382611f4a565b8082529160018116908115611803575060011461179f575b50506008546101448401526009546101648401528284038101610184840152600a5486946114b882611f4a565b808252916001811690811561177f575060011461171b575b505082840381016101a4840152600b5486946114eb82611f4a565b80825291600181169081156116fb5750600114611697575b5050828403016101c48301528492600c5461151d81611f4a565b8083529260018216918215611678575050600114611619575b50602092829003905081857f00000000000000000000000000000000000000000000000000000000000000006001600160a01b03165af1801561160e576115e3575b602085807f03551b986d041cbc5634e1ecf13ea7eb57c58e6ed33c521fc03c6f524e1283176115bd8a6115d88a6115ca8b604051958695606087526060870190611f25565b908582038b870152611f25565b908382036040850152611f25565b0390a2604051908152f35b602090813d8311611607575b6115f98183611e69565b810103126101365780611578565b503d6115ef565b6040513d84823e3d90fd5b600c8652925084907fdf6966c971051c3d54ec59162606531493a51404a002842f56009d7e5cf4a8c75b81831061165a575050602082918194010192611536565b60209194935080600191548385870101520191019092849293611643565b602096508693925093859460ff1916848401521515901b010192611536565b9392919450600b87527f0175b7a638427703f0dbe7bb9bbf987a2551717b34e79f33b5b1008d1fa01db99387915b8083106116dd57506020929394500101923880611503565b935091936001816020925483858701015201910190939186936116c5565b9050602093965060ff9291921916838301521515831b0101923880611503565b9392919450600a87527fc65a7bb8d6351c1cf70c95a316cc6a92839c986682d98bc35f958f4883f9d2a89387915b808310611761575060209293945001019238806114d0565b93509193600181602092548385870101520191019093918693611749565b9050602093965060ff9291921916838301521515831b01019238806114d0565b9392919450600787527fa66cc928b5edb82af9bd49922954155ab7b0942694bea4ce44661d9a8736c6889387915b8083106117e55750602092939450010192388061148b565b935091936001816020925483858701015201910190939186936117cd565b9050602093965060ff9291921916838301521515831b010192388061148b565b93928092955087527f036b6384b5eca791c62761152d0c79bb0604c104a5fb6f4eb0703f3154bb3db09387915b8083106118685750602092939450010192388061144f565b93509193600181602092548385870101520191019093918693611850565b9050602093965060ff9291921916838301521515831b010192388061144f565b600387529092915085907fc2575a0e9e593c00f959f8c92f12db2869c3395a3b0502d05e2516446f71f85b5b8483106118e85750602092935001013880611401565b60209193508060019154838587010152019101909185926118d2565b90506020935060ff929192191683830152151560051b01013880611401565b600184529050827fb10e2d527612073b26eecdfd717e6a320cf44b4afac2b0732d9fcbe2b7fa0cf65b82821061196257506102049150820101386113c0565b6001816020925461020485880101520191019061194c565b9250506102049160ff191682840152151560051b820101386113c0565b805180518051906001600160401b038211611bd0576119b68554611f4a565b601f8111611ba0575b50602090601f8311600114611b36576020939291899183611b2b575b50508160011b916000199060031b1c19161784555b01518051906001600160401b038211611b1757611a106001850154611f4a565b601f8111611ad9575b50602090601f8311600114611a675792826002936020936001968b92611a5c575b5050600019600383901b1c191690851b17858501555b01920192019190611368565b015190503880611a3a565b906001850188526020882091885b601f1985168110611ac1575083602093600196938793600297601f19811610611aa8575b505050811b0184860155611a50565b015160001960f88460031b161c19169055388080611a99565b91926020600181928685015181550194019201611a75565b611b0790600186018952602089206005601f8601811c82019260208710611b0d575b601f01901c0190612046565b38611a19565b9192508291611afb565b634e487b7160e01b87526041600452602487fd5b0151905038806119db565b908589526020892091895b601f1985168110611b88575091839160019360209695601f19811610611b6f575b505050811b0184556119f0565b015160001960f88460031b161c19169055388080611b62565b91926020600181928685015181550194019201611b41565b611bca90868a5260208a206005601f8601811c82019260208710611b0d57601f01901c0190612046565b386119bf565b634e487b7160e01b88526041600452602488fd5b6001600160ff1b038181168203611c535784168403611c3f57600183018552602085208460011b81015b8260011b82018110611c21575050611356565b80611c2d600292612082565b611c3960018201612082565b01611c0e565b634e487b7160e01b85526011600452602485fd5b634e487b7160e01b86526011600452602486fd5b015190503880611319565b858752602087209250601f198416875b818110611cbe5750908460019594939210611ca5575b505050811b01825561132e565b015160001960f88460031b161c19169055388080611c98565b92936020600181928786015181550195019301611c82565b611d009086885260208820601f850160051c8101916020861061034d57601f0160051c0190612046565b38611303565b602090611d116120cb565b82828901015201611267565b6010875290508560008051602061218d8339815191525b848210611d495750509161122d920138611207565b805482840152869350602090910190600101611d34565b60ff191682525061122d938015150201905038611207565b600f85529050836000805160206121ad8339815191525b828210611da35750508201602001386111d0565b6001816020925483858901015201910190611d8f565b90506020925060ff19168285015280151502830101386111d0565b90503d8083833e611de58183611e69565b810190602081830312610132578051906001600160401b03821161110d570181601f8201121561013257805190611e1b82611e8a565b92611e296040519485611e69565b8284526020838301011161110d5790611e489160208085019101611f02565b386111a9565b604081019081106001600160401b0382111761085057604052565b90601f801991011681019081106001600160401b0382111761085057604052565b6001600160401b03811161085057601f01601f191660200190565b81601f82011215611eec57803590611ebc82611e8a565b92611eca6040519485611e69565b82845260208383010111611eec57816000926020809301838601378301015290565b600080fd5b359063ffffffff82168203611eec57565b60005b838110611f155750506000910152565b8181015183820152602001611f05565b90602091611f3e81518092818552858086019101611f02565b601f01601f1916010190565b90600182811c92168015611f7a575b6020831014611f6457565b634e487b7160e01b600052602260045260246000fd5b91607f1691611f59565b9060009291805491611f9583611f4a565b918282526001938481169081600014611ff75750600114611fb7575b50505050565b90919394506000526020928360002092846000945b838610611fe3575050505001019038808080611fb1565b805485870183015294019385908201611fcc565b9294505050602093945060ff191683830152151560051b01019038808080611fb1565b6000546001600160a01b0316330361202e57565b60405163118cdaa760e01b8152336004820152602490fd5b818110612051575050565b60008155600101612046565b600019811461206c5760010190565b634e487b7160e01b600052601160045260246000fd5b61208c8154611f4a565b9081612096575050565b81601f600093116001146120a8575055565b9080839182526120c7601f60208420940160051c840160018501612046565b5555565b604051906120d882611e4e565b60606020838281520152565b8051156120f15760200190565b634e487b7160e01b600052603260045260246000fd5b9081518110156120f1570160200190565b90805182511061217657600090815b815181101561216d576001600160f81b0319806121448387612107565b5116906121518385612107565b511603612166576121619061205d565b612127565b5050905090565b50505050600190565b5050600090565b60061981019190821161206c5756fe1b6847dc741a1b0cd08d278845f9d819d87b734759afb55fe2de5cb82a9ae6728d1108e10bcb7c27dddfc02ed9d693a074039d026cf4ea4240b40f7d581ac802a26469706673582212202e6d357fa5b33e3384998c2c22c3d5345babe006c65e805b8d173d3351e8d13664736f6c63430008140033",
          "opcodes": "PUSH1 0xC0 CALLVALUE PUSH3 0xBF5 JUMPI PUSH3 0x2E3D SWAP1 PUSH1 0x1F CODESIZE DUP4 SWAP1 SUB SWAP1 DUP2 ADD PUSH1 0x1F NOT AND DUP3 ADD SWAP1 PUSH1 0x1 PUSH1 0x1 PUSH1 0x40 SHL SUB DUP3 GT DUP4 DUP4 LT OR PUSH3 0x651 JUMPI DUP1 DUP4 SWAP2 PUSH1 0x40 SWAP6 DUP7 SWAP5 DUP6 MSTORE DUP4 CODECOPY DUP2 ADD SUB SLT PUSH3 0xBF5 JUMPI DUP1 MLOAD PUSH1 0x1 PUSH1 0x1 PUSH1 0xA0 SHL SUB SWAP2 DUP3 DUP3 AND DUP3 SUB PUSH3 0xBF5 JUMPI PUSH1 0x20 ADD MLOAD SWAP2 DUP1 DUP4 AND DUP4 SUB PUSH3 0xBF5 JUMPI CALLER ISZERO PUSH3 0xBDD JUMPI PUSH1 0x0 DUP1 SLOAD CALLER PUSH1 0x1 PUSH1 0x1 PUSH1 0xA0 SHL SUB NOT DUP3 AND DUP2 OR DUP4 SSTORE SWAP3 AND SWAP1 PUSH32 0x8BE0079C531659141344CD1FD0A4F28419497F9722A3DAAFE3B4186F6B6457E0 SWAP1 DUP1 LOG3 PUSH1 0x80 MSTORE PUSH1 0xA0 MSTORE DUP1 MLOAD SWAP1 PUSH2 0x1A0 DUP3 ADD PUSH1 0x1 PUSH1 0x1 PUSH1 0x40 SHL SUB DUP2 GT DUP4 DUP3 LT OR PUSH3 0x651 JUMPI DUP2 MSTORE PUSH3 0xD7 PUSH3 0xBFA JUMP JUMPDEST PUSH1 0xB DUP2 MSTORE PUSH11 0x6770742D342D747572626F PUSH1 0xA8 SHL PUSH1 0x20 DUP3 ADD MSTORE DUP3 MSTORE PUSH1 0x15 PUSH1 0x20 DUP4 ADD MSTORE PUSH3 0x102 PUSH3 0xC1A JUMP JUMPDEST PUSH1 0x0 DUP2 MSTORE DUP2 DUP4 ADD MSTORE PUSH2 0x3E8 PUSH1 0x60 DUP4 ADD MSTORE PUSH1 0x15 PUSH1 0x80 DUP4 ADD MSTORE PUSH3 0x123 PUSH3 0xBFA JUMP JUMPDEST PUSH1 0xF DUP2 MSTORE PUSH15 0x7B2274797065223A2274657874227D PUSH1 0x88 SHL PUSH1 0x20 DUP3 ADD MSTORE PUSH1 0xA0 DUP4 ADD MSTORE PUSH1 0x0 PUSH1 0xC0 DUP4 ADD MSTORE PUSH3 0x155 PUSH3 0xC1A JUMP JUMPDEST PUSH1 0x0 DUP2 MSTORE PUSH1 0xE0 DUP4 ADD MSTORE PUSH1 0xA PUSH2 0x100 DUP4 ADD MSTORE PUSH1 0x65 PUSH2 0x120 DUP4 ADD MSTORE PUSH3 0x178 PUSH3 0xC1A JUMP JUMPDEST PUSH1 0x0 DUP2 MSTORE PUSH2 0x140 DUP4 ADD MSTORE PUSH3 0x18C PUSH3 0xC1A JUMP JUMPDEST PUSH1 0x0 DUP2 MSTORE PUSH2 0x160 DUP4 ADD MSTORE PUSH3 0x1A0 PUSH3 0xC1A JUMP JUMPDEST PUSH1 0x0 DUP2 MSTORE PUSH2 0x180 DUP4 ADD MSTORE DUP2 MLOAD DUP1 MLOAD SWAP1 SWAP3 SWAP1 PUSH1 0x1 PUSH1 0x1 PUSH1 0x40 SHL SUB DUP2 GT PUSH3 0x651 JUMPI PUSH1 0x1 SLOAD PUSH1 0x1 DUP2 DUP2 SHR SWAP2 AND DUP1 ISZERO PUSH3 0xBD2 JUMPI JUMPDEST PUSH1 0x20 DUP3 LT EQ PUSH3 0x630 JUMPI PUSH1 0x1F DUP2 GT PUSH3 0xB6C JUMPI JUMPDEST POP PUSH1 0x20 PUSH1 0x1F DUP3 GT PUSH1 0x1 EQ PUSH3 0xAFD JUMPI DUP2 SWAP3 SWAP4 SWAP5 PUSH1 0x0 SWAP3 PUSH3 0xAF1 JUMPI JUMPDEST POP POP DUP2 PUSH1 0x1 SHL SWAP2 PUSH1 0x0 NOT SWAP1 PUSH1 0x3 SHL SHR NOT AND OR PUSH1 0x1 SSTORE JUMPDEST PUSH1 0x20 DUP2 ADD MLOAD PUSH1 0xFF NOT PUSH1 0x2 SLOAD AND SWAP1 PUSH1 0xFF AND OR PUSH1 0x2 SSTORE DUP2 DUP2 ADD MLOAD SWAP2 DUP3 MLOAD PUSH1 0x1 DUP1 PUSH1 0x40 SHL SUB DUP2 GT PUSH3 0x651 JUMPI PUSH1 0x3 SLOAD PUSH1 0x1 DUP2 DUP2 SHR SWAP2 AND DUP1 ISZERO PUSH3 0xAE6 JUMPI JUMPDEST PUSH1 0x20 DUP3 LT EQ PUSH3 0x630 JUMPI PUSH1 0x1F DUP2 GT PUSH3 0xA80 JUMPI JUMPDEST POP PUSH1 0x20 PUSH1 0x1F DUP3 GT PUSH1 0x1 EQ PUSH3 0xA11 JUMPI DUP2 SWAP3 SWAP4 SWAP5 PUSH1 0x0 SWAP3 PUSH3 0xA05 JUMPI JUMPDEST POP POP DUP2 PUSH1 0x1 SHL SWAP2 PUSH1 0x0 NOT SWAP1 PUSH1 0x3 SHL SHR NOT AND OR PUSH1 0x3 SSTORE JUMPDEST PUSH4 0xFFFFFFFF PUSH1 0x60 DUP4 ADD MLOAD AND PUSH1 0x4 SLOAD SWAP1 PUSH1 0x80 DUP5 ADD MLOAD PUSH1 0x20 SHL PUSH5 0xFF00000000 AND SWAP2 PUSH5 0xFFFFFFFFFF NOT AND OR OR PUSH1 0x4 SSTORE PUSH1 0xA0 DUP3 ADD MLOAD SWAP2 DUP3 MLOAD PUSH1 0x1 DUP1 PUSH1 0x40 SHL SUB DUP2 GT PUSH3 0x651 JUMPI PUSH1 0x5 SLOAD PUSH1 0x1 DUP2 DUP2 SHR SWAP2 AND DUP1 ISZERO PUSH3 0x9FA JUMPI JUMPDEST PUSH1 0x20 DUP3 LT EQ PUSH3 0x630 JUMPI PUSH1 0x1F DUP2 GT PUSH3 0x9B0 JUMPI JUMPDEST POP PUSH1 0x20 PUSH1 0x1F DUP3 GT PUSH1 0x1 EQ PUSH3 0x941 JUMPI DUP2 SWAP3 SWAP4 SWAP5 PUSH1 0x0 SWAP3 PUSH3 0x935 JUMPI JUMPDEST POP POP DUP2 PUSH1 0x1 SHL SWAP2 PUSH1 0x0 NOT SWAP1 PUSH1 0x3 SHL SHR NOT AND OR PUSH1 0x5 SSTORE JUMPDEST PUSH1 0xC0 DUP2 ADD MLOAD PUSH1 0x6 SSTORE PUSH1 0xE0 DUP2 ADD MLOAD DUP1 MLOAD SWAP1 SWAP3 SWAP1 PUSH1 0x1 PUSH1 0x1 PUSH1 0x40 SHL SUB DUP2 GT PUSH3 0x651 JUMPI PUSH1 0x7 SLOAD PUSH1 0x1 DUP2 DUP2 SHR SWAP2 AND DUP1 ISZERO PUSH3 0x92A JUMPI JUMPDEST PUSH1 0x20 DUP3 LT EQ PUSH3 0x630 JUMPI PUSH1 0x1F DUP2 GT PUSH3 0x8C4 JUMPI JUMPDEST POP PUSH1 0x20 PUSH1 0x1F DUP3 GT PUSH1 0x1 EQ PUSH3 0x855 JUMPI DUP2 SWAP3 SWAP4 SWAP5 PUSH1 0x0 SWAP3 PUSH3 0x849 JUMPI JUMPDEST POP POP DUP2 PUSH1 0x1 SHL SWAP2 PUSH1 0x0 NOT SWAP1 PUSH1 0x3 SHL SHR NOT AND OR PUSH1 0x7 SSTORE JUMPDEST PUSH2 0x100 DUP3 ADD MLOAD PUSH1 0x8 SSTORE PUSH2 0x120 DUP3 ADD MLOAD PUSH1 0x9 SSTORE PUSH2 0x140 DUP3 ADD MLOAD DUP1 MLOAD SWAP1 SWAP3 SWAP1 PUSH1 0x1 PUSH1 0x1 PUSH1 0x40 SHL SUB DUP2 GT PUSH3 0x651 JUMPI PUSH1 0xA SLOAD PUSH1 0x1 DUP2 DUP2 SHR SWAP2 AND DUP1 ISZERO PUSH3 0x83E JUMPI JUMPDEST PUSH1 0x20 DUP3 LT EQ PUSH3 0x630 JUMPI PUSH1 0x1F DUP2 GT PUSH3 0x7D8 JUMPI JUMPDEST POP PUSH1 0x20 PUSH1 0x1F DUP3 GT PUSH1 0x1 EQ PUSH3 0x769 JUMPI DUP2 SWAP3 SWAP4 SWAP5 PUSH1 0x0 SWAP3 PUSH3 0x75D JUMPI JUMPDEST POP POP DUP2 PUSH1 0x1 SHL SWAP2 PUSH1 0x0 NOT SWAP1 PUSH1 0x3 SHL SHR NOT AND OR PUSH1 0xA SSTORE JUMPDEST PUSH2 0x160 DUP2 ADD MLOAD DUP1 MLOAD SWAP1 PUSH1 0x1 PUSH1 0x1 PUSH1 0x40 SHL SUB DUP3 GT PUSH3 0x651 JUMPI PUSH1 0xB SLOAD PUSH1 0x1 DUP2 DUP2 SHR SWAP2 AND DUP1 ISZERO PUSH3 0x752 JUMPI JUMPDEST PUSH1 0x20 DUP3 LT EQ PUSH3 0x630 JUMPI PUSH1 0x1F DUP2 GT PUSH3 0x6E8 JUMPI JUMPDEST POP PUSH1 0x20 SWAP1 PUSH1 0x1F DUP4 GT PUSH1 0x1 EQ PUSH3 0x673 JUMPI PUSH2 0x180 SWAP4 SWAP3 SWAP2 PUSH1 0x0 SWAP2 DUP4 PUSH3 0x667 JUMPI JUMPDEST POP POP DUP2 PUSH1 0x1 SHL SWAP2 PUSH1 0x0 NOT SWAP1 PUSH1 0x3 SHL SHR NOT AND OR PUSH1 0xB SSTORE JUMPDEST ADD MLOAD DUP1 MLOAD SWAP1 SWAP2 SWAP1 PUSH1 0x1 PUSH1 0x1 PUSH1 0x40 SHL SUB DUP2 GT PUSH3 0x651 JUMPI PUSH1 0xC SLOAD PUSH1 0x1 DUP2 DUP2 SHR SWAP2 AND DUP1 ISZERO PUSH3 0x646 JUMPI JUMPDEST PUSH1 0x20 DUP3 LT EQ PUSH3 0x630 JUMPI PUSH1 0x1F DUP2 GT PUSH3 0x5C6 JUMPI JUMPDEST POP PUSH1 0x20 SWAP3 PUSH1 0x1F DUP3 GT PUSH1 0x1 EQ PUSH3 0x55B JUMPI SWAP3 DUP2 SWAP3 SWAP4 PUSH1 0x0 SWAP3 PUSH3 0x54F JUMPI JUMPDEST POP POP DUP2 PUSH1 0x1 SHL SWAP2 PUSH1 0x0 NOT SWAP1 PUSH1 0x3 SHL SHR NOT AND OR PUSH1 0xC SSTORE JUMPDEST MLOAD PUSH2 0x2202 SWAP1 DUP2 PUSH3 0xC3B DUP3 CODECOPY PUSH1 0x80 MLOAD DUP2 DUP2 DUP2 PUSH2 0x4C0 ADD MSTORE DUP2 DUP2 PUSH2 0xA53 ADD MSTORE PUSH2 0x1543 ADD MSTORE PUSH1 0xA0 MLOAD DUP2 DUP2 DUP2 PUSH2 0x5C0 ADD MSTORE DUP2 DUP2 PUSH2 0xCE9 ADD MSTORE PUSH2 0x1171 ADD MSTORE RETURN JUMPDEST ADD MLOAD SWAP1 POP CODESIZE DUP1 PUSH3 0x4FD JUMP JUMPDEST PUSH1 0x1F NOT DUP3 AND SWAP4 PUSH1 0xC PUSH1 0x0 MSTORE PUSH1 0x20 PUSH1 0x0 KECCAK256 SWAP2 PUSH1 0x0 JUMPDEST DUP7 DUP2 LT PUSH3 0x5AD JUMPI POP DUP4 PUSH1 0x1 SWAP6 SWAP7 LT PUSH3 0x593 JUMPI JUMPDEST POP POP POP DUP2 SHL ADD PUSH1 0xC SSTORE PUSH3 0x513 JUMP JUMPDEST ADD MLOAD PUSH1 0x0 NOT PUSH1 0xF8 DUP5 PUSH1 0x3 SHL AND SHR NOT AND SWAP1 SSTORE CODESIZE DUP1 DUP1 PUSH3 0x584 JUMP JUMPDEST SWAP2 SWAP3 PUSH1 0x20 PUSH1 0x1 DUP2 SWAP3 DUP7 DUP6 ADD MLOAD DUP2 SSTORE ADD SWAP5 ADD SWAP3 ADD PUSH3 0x56F JUMP JUMPDEST PUSH1 0xC PUSH1 0x0 MSTORE PUSH32 0xDF6966C971051C3D54EC59162606531493A51404A002842F56009D7E5CF4A8C7 PUSH1 0x1F DUP4 ADD PUSH1 0x5 SHR DUP2 ADD SWAP2 PUSH1 0x20 DUP5 LT PUSH3 0x625 JUMPI JUMPDEST PUSH1 0x1F ADD PUSH1 0x5 SHR ADD SWAP1 JUMPDEST DUP2 DUP2 LT PUSH3 0x618 JUMPI POP PUSH3 0x4E0 JUMP JUMPDEST PUSH1 0x0 DUP2 SSTORE PUSH1 0x1 ADD PUSH3 0x609 JUMP JUMPDEST SWAP1 SWAP2 POP DUP2 SWAP1 PUSH3 0x600 JUMP JUMPDEST PUSH4 0x4E487B71 PUSH1 0xE0 SHL PUSH1 0x0 MSTORE PUSH1 0x22 PUSH1 0x4 MSTORE PUSH1 0x24 PUSH1 0x0 REVERT JUMPDEST SWAP1 PUSH1 0x7F AND SWAP1 PUSH3 0x4CC JUMP JUMPDEST PUSH4 0x4E487B71 PUSH1 0xE0 SHL PUSH1 0x0 MSTORE PUSH1 0x41 PUSH1 0x4 MSTORE PUSH1 0x24 PUSH1 0x0 REVERT JUMPDEST ADD MLOAD SWAP1 POP CODESIZE DUP1 PUSH3 0x48E JUMP JUMPDEST SWAP1 PUSH1 0xB PUSH1 0x0 MSTORE PUSH1 0x20 PUSH1 0x0 KECCAK256 SWAP2 PUSH1 0x0 JUMPDEST PUSH1 0x1F NOT DUP6 AND DUP2 LT PUSH3 0x6CF JUMPI POP SWAP2 DUP4 SWAP2 PUSH1 0x1 SWAP4 PUSH2 0x180 SWAP7 SWAP6 PUSH1 0x1F NOT DUP2 AND LT PUSH3 0x6B5 JUMPI JUMPDEST POP POP POP DUP2 SHL ADD PUSH1 0xB SSTORE PUSH3 0x4A4 JUMP JUMPDEST ADD MLOAD PUSH1 0x0 NOT PUSH1 0xF8 DUP5 PUSH1 0x3 SHL AND SHR NOT AND SWAP1 SSTORE CODESIZE DUP1 DUP1 PUSH3 0x6A6 JUMP JUMPDEST SWAP2 SWAP3 PUSH1 0x20 PUSH1 0x1 DUP2 SWAP3 DUP7 DUP6 ADD MLOAD DUP2 SSTORE ADD SWAP5 ADD SWAP3 ADD PUSH3 0x682 JUMP JUMPDEST PUSH1 0xB PUSH1 0x0 MSTORE PUSH32 0x175B7A638427703F0DBE7BB9BBF987A2551717B34E79F33B5B1008D1FA01DB9 PUSH1 0x1F DUP5 ADD PUSH1 0x5 SHR DUP2 ADD SWAP2 PUSH1 0x20 DUP6 LT PUSH3 0x747 JUMPI JUMPDEST PUSH1 0x1F ADD PUSH1 0x5 SHR ADD SWAP1 JUMPDEST DUP2 DUP2 LT PUSH3 0x73A JUMPI POP PUSH3 0x46E JUMP JUMPDEST PUSH1 0x0 DUP2 SSTORE PUSH1 0x1 ADD PUSH3 0x72B JUMP JUMPDEST SWAP1 SWAP2 POP DUP2 SWAP1 PUSH3 0x722 JUMP JUMPDEST SWAP1 PUSH1 0x7F AND SWAP1 PUSH3 0x45A JUMP JUMPDEST ADD MLOAD SWAP1 POP CODESIZE DUP1 PUSH3 0x41A JUMP JUMPDEST PUSH1 0xA PUSH1 0x0 MSTORE PUSH1 0x20 PUSH1 0x0 KECCAK256 SWAP1 PUSH1 0x0 JUMPDEST PUSH1 0x1F NOT DUP5 AND DUP2 LT PUSH3 0x7BF JUMPI POP PUSH1 0x1 SWAP4 SWAP5 SWAP6 DUP4 PUSH1 0x1F NOT DUP2 AND LT PUSH3 0x7A5 JUMPI JUMPDEST POP POP POP DUP2 SHL ADD PUSH1 0xA SSTORE PUSH3 0x430 JUMP JUMPDEST ADD MLOAD PUSH1 0x0 NOT PUSH1 0xF8 DUP5 PUSH1 0x3 SHL AND SHR NOT AND SWAP1 SSTORE CODESIZE DUP1 DUP1 PUSH3 0x796 JUMP JUMPDEST SWAP1 SWAP2 PUSH1 0x20 PUSH1 0x1 DUP2 SWAP3 DUP6 DUP11 ADD MLOAD DUP2 SSTORE ADD SWAP4 ADD SWAP2 ADD PUSH3 0x777 JUMP JUMPDEST PUSH1 0xA PUSH1 0x0 MSTORE PUSH32 0xC65A7BB8D6351C1CF70C95A316CC6A92839C986682D98BC35F958F4883F9D2A8 PUSH1 0x1F DUP4 ADD PUSH1 0x5 SHR DUP2 ADD PUSH1 0x20 DUP5 LT PUSH3 0x836 JUMPI JUMPDEST PUSH1 0x1F DUP4 ADD PUSH1 0x5 SHR DUP3 ADD DUP2 LT PUSH3 0x829 JUMPI POP POP PUSH3 0x3FE JUMP JUMPDEST PUSH1 0x0 DUP2 SSTORE PUSH1 0x1 ADD PUSH3 0x811 JUMP JUMPDEST POP DUP1 PUSH3 0x811 JUMP JUMPDEST SWAP1 PUSH1 0x7F AND SWAP1 PUSH3 0x3EA JUMP JUMPDEST ADD MLOAD SWAP1 POP CODESIZE DUP1 PUSH3 0x396 JUMP JUMPDEST PUSH1 0x7 PUSH1 0x0 MSTORE PUSH1 0x20 PUSH1 0x0 KECCAK256 SWAP1 PUSH1 0x0 JUMPDEST PUSH1 0x1F NOT DUP5 AND DUP2 LT PUSH3 0x8AB JUMPI POP PUSH1 0x1 SWAP4 SWAP5 SWAP6 DUP4 PUSH1 0x1F NOT DUP2 AND LT PUSH3 0x891 JUMPI JUMPDEST POP POP POP DUP2 SHL ADD PUSH1 0x7 SSTORE PUSH3 0x3AC JUMP JUMPDEST ADD MLOAD PUSH1 0x0 NOT PUSH1 0xF8 DUP5 PUSH1 0x3 SHL AND SHR NOT AND SWAP1 SSTORE CODESIZE DUP1 DUP1 PUSH3 0x882 JUMP JUMPDEST SWAP1 SWAP2 PUSH1 0x20 PUSH1 0x1 DUP2 SWAP3 DUP6 DUP11 ADD MLOAD DUP2 SSTORE ADD SWAP4 ADD SWAP2 ADD PUSH3 0x863 JUMP JUMPDEST PUSH1 0x7 PUSH1 0x0 MSTORE PUSH32 0xA66CC928B5EDB82AF9BD49922954155AB7B0942694BEA4CE44661D9A8736C688 PUSH1 0x1F DUP4 ADD PUSH1 0x5 SHR DUP2 ADD PUSH1 0x20 DUP5 LT PUSH3 0x922 JUMPI JUMPDEST PUSH1 0x1F DUP4 ADD PUSH1 0x5 SHR DUP3 ADD DUP2 LT PUSH3 0x915 JUMPI POP POP PUSH3 0x37A JUMP JUMPDEST PUSH1 0x0 DUP2 SSTORE PUSH1 0x1 ADD PUSH3 0x8FD JUMP JUMPDEST POP DUP1 PUSH3 0x8FD JUMP JUMPDEST SWAP1 PUSH1 0x7F AND SWAP1 PUSH3 0x366 JUMP JUMPDEST ADD MLOAD SWAP1 POP CODESIZE DUP1 PUSH3 0x31D JUMP JUMPDEST PUSH1 0x5 PUSH1 0x0 MSTORE PUSH1 0x20 PUSH1 0x0 KECCAK256 SWAP1 PUSH1 0x0 JUMPDEST PUSH1 0x1F NOT DUP5 AND DUP2 LT PUSH3 0x997 JUMPI POP PUSH1 0x1 SWAP4 SWAP5 SWAP6 DUP4 PUSH1 0x1F NOT DUP2 AND LT PUSH3 0x97D JUMPI JUMPDEST POP POP POP DUP2 SHL ADD PUSH1 0x5 SSTORE PUSH3 0x333 JUMP JUMPDEST ADD MLOAD PUSH1 0x0 NOT PUSH1 0xF8 DUP5 PUSH1 0x3 SHL AND SHR NOT AND SWAP1 SSTORE CODESIZE DUP1 DUP1 PUSH3 0x96E JUMP JUMPDEST SWAP1 SWAP2 PUSH1 0x20 PUSH1 0x1 DUP2 SWAP3 DUP6 DUP11 ADD MLOAD DUP2 SSTORE ADD SWAP4 ADD SWAP2 ADD PUSH3 0x94F JUMP JUMPDEST PUSH1 0x5 PUSH1 0x0 MSTORE PUSH1 0x20 PUSH1 0x0 KECCAK256 PUSH1 0x1F DUP4 ADD PUSH1 0x5 SHR DUP2 ADD PUSH1 0x20 DUP5 LT PUSH3 0x9F2 JUMPI JUMPDEST PUSH1 0x1F DUP4 ADD PUSH1 0x5 SHR DUP3 ADD DUP2 LT PUSH3 0x9E5 JUMPI POP POP PUSH3 0x301 JUMP JUMPDEST PUSH1 0x0 DUP2 SSTORE PUSH1 0x1 ADD PUSH3 0x9CD JUMP JUMPDEST POP DUP1 PUSH3 0x9CD JUMP JUMPDEST SWAP1 PUSH1 0x7F AND SWAP1 PUSH3 0x2ED JUMP JUMPDEST ADD MLOAD SWAP1 POP CODESIZE DUP1 PUSH3 0x283 JUMP JUMPDEST PUSH1 0x3 PUSH1 0x0 MSTORE PUSH1 0x20 PUSH1 0x0 KECCAK256 SWAP1 PUSH1 0x0 JUMPDEST PUSH1 0x1F NOT DUP5 AND DUP2 LT PUSH3 0xA67 JUMPI POP PUSH1 0x1 SWAP4 SWAP5 SWAP6 DUP4 PUSH1 0x1F NOT DUP2 AND LT PUSH3 0xA4D JUMPI JUMPDEST POP POP POP DUP2 SHL ADD PUSH1 0x3 SSTORE PUSH3 0x299 JUMP JUMPDEST ADD MLOAD PUSH1 0x0 NOT PUSH1 0xF8 DUP5 PUSH1 0x3 SHL AND SHR NOT AND SWAP1 SSTORE CODESIZE DUP1 DUP1 PUSH3 0xA3E JUMP JUMPDEST SWAP1 SWAP2 PUSH1 0x20 PUSH1 0x1 DUP2 SWAP3 DUP6 DUP11 ADD MLOAD DUP2 SSTORE ADD SWAP4 ADD SWAP2 ADD PUSH3 0xA1F JUMP JUMPDEST PUSH1 0x3 PUSH1 0x0 MSTORE PUSH32 0xC2575A0E9E593C00F959F8C92F12DB2869C3395A3B0502D05E2516446F71F85B PUSH1 0x1F DUP4 ADD PUSH1 0x5 SHR DUP2 ADD PUSH1 0x20 DUP5 LT PUSH3 0xADE JUMPI JUMPDEST PUSH1 0x1F DUP4 ADD PUSH1 0x5 SHR DUP3 ADD DUP2 LT PUSH3 0xAD1 JUMPI POP POP PUSH3 0x267 JUMP JUMPDEST PUSH1 0x0 DUP2 SSTORE PUSH1 0x1 ADD PUSH3 0xAB9 JUMP JUMPDEST POP DUP1 PUSH3 0xAB9 JUMP JUMPDEST SWAP1 PUSH1 0x7F AND SWAP1 PUSH3 0x253 JUMP JUMPDEST ADD MLOAD SWAP1 POP CODESIZE DUP1 PUSH3 0x202 JUMP JUMPDEST PUSH1 0x1 PUSH1 0x0 MSTORE PUSH1 0x20 PUSH1 0x0 KECCAK256 SWAP1 PUSH1 0x0 JUMPDEST PUSH1 0x1F NOT DUP5 AND DUP2 LT PUSH3 0xB53 JUMPI POP PUSH1 0x1 SWAP4 SWAP5 SWAP6 DUP4 PUSH1 0x1F NOT DUP2 AND LT PUSH3 0xB39 JUMPI JUMPDEST POP POP POP DUP2 SHL ADD PUSH1 0x1 SSTORE PUSH3 0x218 JUMP JUMPDEST ADD MLOAD PUSH1 0x0 NOT PUSH1 0xF8 DUP5 PUSH1 0x3 SHL AND SHR NOT AND SWAP1 SSTORE CODESIZE DUP1 DUP1 PUSH3 0xB2A JUMP JUMPDEST SWAP1 SWAP2 PUSH1 0x20 PUSH1 0x1 DUP2 SWAP3 DUP6 DUP11 ADD MLOAD DUP2 SSTORE ADD SWAP4 ADD SWAP2 ADD PUSH3 0xB0B JUMP JUMPDEST PUSH1 0x1 PUSH1 0x0 MSTORE PUSH32 0xB10E2D527612073B26EECDFD717E6A320CF44B4AFAC2B0732D9FCBE2B7FA0CF6 PUSH1 0x1F DUP4 ADD PUSH1 0x5 SHR DUP2 ADD PUSH1 0x20 DUP5 LT PUSH3 0xBCA JUMPI JUMPDEST PUSH1 0x1F DUP4 ADD PUSH1 0x5 SHR DUP3 ADD DUP2 LT PUSH3 0xBBD JUMPI POP POP PUSH3 0x1E6 JUMP JUMPDEST PUSH1 0x0 DUP2 SSTORE PUSH1 0x1 ADD PUSH3 0xBA5 JUMP JUMPDEST POP DUP1 PUSH3 0xBA5 JUMP JUMPDEST SWAP1 PUSH1 0x7F AND SWAP1 PUSH3 0x1D2 JUMP JUMPDEST DUP4 MLOAD PUSH4 0x1E4FBDF7 PUSH1 0xE0 SHL DUP2 MSTORE PUSH1 0x0 PUSH1 0x4 DUP3 ADD MSTORE PUSH1 0x24 SWAP1 REVERT JUMPDEST PUSH1 0x0 DUP1 REVERT JUMPDEST PUSH1 0x40 DUP1 MLOAD SWAP2 SWAP1 DUP3 ADD PUSH1 0x1 PUSH1 0x1 PUSH1 0x40 SHL SUB DUP2 GT DUP4 DUP3 LT OR PUSH3 0x651 JUMPI PUSH1 0x40 MSTORE JUMP JUMPDEST PUSH1 0x40 MLOAD SWAP1 PUSH1 0x20 DUP3 ADD PUSH1 0x1 PUSH1 0x1 PUSH1 0x40 SHL SUB DUP2 GT DUP4 DUP3 LT OR PUSH3 0x651 JUMPI PUSH1 0x40 MSTORE JUMP INVALID PUSH1 0x80 PUSH1 0x40 MSTORE PUSH1 0x4 CALLDATASIZE LT ISZERO PUSH2 0x12 JUMPI PUSH1 0x0 DUP1 REVERT JUMPDEST PUSH1 0x0 DUP1 CALLDATALOAD PUSH1 0xE0 SHR DUP1 PUSH4 0x469C8110 EQ PUSH2 0x1129 JUMPI DUP1 PUSH4 0x4CECD88E EQ PUSH2 0x87C JUMPI DUP1 PUSH4 0x54A470FC EQ PUSH2 0x649 JUMPI DUP1 PUSH4 0x715018A6 EQ PUSH2 0x5EF JUMPI DUP1 PUSH4 0x7B103999 EQ PUSH2 0x5AA JUMPI DUP1 PUSH4 0x7BE14234 EQ PUSH2 0x516 JUMPI DUP1 PUSH4 0x8DA5CB5B EQ PUSH2 0x4EF JUMPI DUP1 PUSH4 0xA89AE4BA EQ PUSH2 0x4AA JUMPI DUP1 PUSH4 0xBC5147BE EQ PUSH2 0x36B JUMPI DUP1 PUSH4 0xDCEAE618 EQ PUSH2 0x20D JUMPI DUP1 PUSH4 0xDDAAFF2A EQ PUSH2 0x139 JUMPI PUSH4 0xF2FDE38B EQ PUSH2 0xA1 JUMPI PUSH1 0x0 DUP1 REVERT JUMPDEST CALLVALUE PUSH2 0x136 JUMPI PUSH1 0x20 CALLDATASIZE PUSH1 0x3 NOT ADD SLT PUSH2 0x136 JUMPI PUSH1 0x4 CALLDATALOAD PUSH1 0x1 PUSH1 0x1 PUSH1 0xA0 SHL SUB DUP2 DUP2 AND SWAP2 DUP3 SWAP1 SUB PUSH2 0x132 JUMPI PUSH2 0xD0 PUSH2 0x201A JUMP JUMPDEST DUP2 ISZERO PUSH2 0x119 JUMPI PUSH1 0x0 SLOAD DUP3 PUSH12 0xFFFFFFFFFFFFFFFFFFFFFFFF PUSH1 0xA0 SHL DUP3 AND OR PUSH1 0x0 SSTORE AND PUSH32 0x8BE0079C531659141344CD1FD0A4F28419497F9722A3DAAFE3B4186F6B6457E0 PUSH1 0x0 DUP1 LOG3 DUP1 RETURN JUMPDEST PUSH1 0x40 MLOAD PUSH4 0x1E4FBDF7 PUSH1 0xE0 SHL DUP2 MSTORE PUSH1 0x4 DUP2 ADD DUP5 SWAP1 MSTORE PUSH1 0x24 SWAP1 REVERT JUMPDEST DUP3 DUP1 REVERT JUMPDEST DUP1 REVERT JUMPDEST POP CALLVALUE PUSH2 0x136 JUMPI DUP1 PUSH1 0x3 NOT CALLDATASIZE ADD SLT PUSH2 0x136 JUMPI PUSH1 0x40 MLOAD PUSH1 0x0 PUSH1 0xF SLOAD PUSH2 0x15B DUP2 PUSH2 0x1F4A JUMP JUMPDEST DUP1 DUP5 MSTORE SWAP1 PUSH1 0x1 SWAP1 DUP2 DUP2 AND SWAP1 DUP2 ISZERO PUSH2 0x1E6 JUMPI POP PUSH1 0x1 EQ PUSH2 0x19D JUMPI JUMPDEST PUSH2 0x199 DUP5 PUSH2 0x185 DUP2 DUP7 SUB DUP3 PUSH2 0x1E69 JUMP JUMPDEST PUSH1 0x40 MLOAD SWAP2 DUP3 SWAP2 PUSH1 0x20 DUP4 MSTORE PUSH1 0x20 DUP4 ADD SWAP1 PUSH2 0x1F25 JUMP JUMPDEST SUB SWAP1 RETURN JUMPDEST PUSH1 0xF PUSH1 0x0 SWAP1 DUP2 MSTORE SWAP3 POP PUSH1 0x0 DUP1 MLOAD PUSH1 0x20 PUSH2 0x21AD DUP4 CODECOPY DUP2 MLOAD SWAP2 MSTORE JUMPDEST DUP3 DUP5 LT PUSH2 0x1CE JUMPI POP POP POP DUP2 ADD PUSH1 0x20 ADD PUSH2 0x185 DUP3 PUSH2 0x175 JUMP JUMPDEST DUP1 SLOAD PUSH1 0x20 DUP6 DUP8 ADD DUP2 ADD SWAP2 SWAP1 SWAP2 MSTORE SWAP1 SWAP4 ADD SWAP3 DUP2 ADD PUSH2 0x1B6 JUMP JUMPDEST PUSH1 0xFF NOT AND PUSH1 0x20 DUP1 DUP8 ADD SWAP2 SWAP1 SWAP2 MSTORE SWAP3 ISZERO ISZERO PUSH1 0x5 SHL DUP6 ADD SWAP1 SWAP3 ADD SWAP3 POP PUSH2 0x185 SWAP2 POP DUP4 SWAP1 POP PUSH2 0x175 JUMP JUMPDEST POP CALLVALUE PUSH2 0x136 JUMPI PUSH1 0x20 SWAP1 DUP2 PUSH1 0x3 NOT CALLDATASIZE ADD SLT PUSH2 0x136 JUMPI PUSH1 0x1 PUSH1 0x1 PUSH1 0x40 SHL SUB PUSH1 0x4 CALLDATALOAD DUP2 DUP2 GT PUSH2 0x132 JUMPI PUSH2 0x241 SWAP1 CALLDATASIZE SWAP1 PUSH1 0x4 ADD PUSH2 0x1EA5 JUMP JUMPDEST SWAP3 PUSH2 0x24A PUSH2 0x201A JUMP JUMPDEST DUP4 MLOAD SWAP2 DUP3 GT PUSH2 0x357 JUMPI PUSH2 0x25E PUSH1 0xF SLOAD PUSH2 0x1F4A JUMP JUMPDEST PUSH1 0x1F DUP2 GT PUSH2 0x311 JUMPI JUMPDEST POP DUP1 PUSH1 0x1F DUP4 GT PUSH1 0x1 EQ PUSH2 0x2A2 JUMPI POP DUP3 SWAP4 DUP3 SWAP4 SWAP3 PUSH2 0x297 JUMPI JUMPDEST POP POP DUP2 PUSH1 0x1 SHL SWAP2 PUSH1 0x0 NOT SWAP1 PUSH1 0x3 SHL SHR NOT AND OR PUSH1 0xF SSTORE DUP1 RETURN JUMPDEST ADD MLOAD SWAP1 POP CODESIZE DUP1 PUSH2 0x27F JUMP JUMPDEST PUSH1 0xF DUP5 MSTORE PUSH1 0x1F NOT DUP4 AND SWAP5 PUSH1 0x0 DUP1 MLOAD PUSH1 0x20 PUSH2 0x21AD DUP4 CODECOPY DUP2 MLOAD SWAP2 MSTORE SWAP3 SWAP2 DUP6 SWAP1 JUMPDEST DUP8 DUP3 LT PUSH2 0x2F9 JUMPI POP POP DUP4 PUSH1 0x1 SWAP6 SWAP7 LT PUSH2 0x2E0 JUMPI JUMPDEST POP POP POP DUP2 SHL ADD PUSH1 0xF SSTORE DUP1 RETURN JUMPDEST ADD MLOAD PUSH1 0x0 NOT PUSH1 0xF8 DUP5 PUSH1 0x3 SHL AND SHR NOT AND SWAP1 SSTORE CODESIZE DUP1 DUP1 PUSH2 0x2D4 JUMP JUMPDEST DUP1 PUSH1 0x1 DUP6 SWAP7 DUP3 SWAP5 SWAP7 DUP7 ADD MLOAD DUP2 SSTORE ADD SWAP6 ADD SWAP4 ADD SWAP1 PUSH2 0x2C0 JUMP JUMPDEST PUSH2 0x347 SWAP1 PUSH1 0xF DUP6 MSTORE PUSH1 0x0 DUP1 MLOAD PUSH1 0x20 PUSH2 0x21AD DUP4 CODECOPY DUP2 MLOAD SWAP2 MSTORE PUSH1 0x1F DUP6 ADD PUSH1 0x5 SHR DUP2 ADD SWAP2 DUP5 DUP7 LT PUSH2 0x34D JUMPI JUMPDEST PUSH1 0x1F ADD PUSH1 0x5 SHR ADD SWAP1 PUSH2 0x2046 JUMP JUMPDEST CODESIZE PUSH2 0x267 JUMP JUMPDEST SWAP1 SWAP2 POP DUP2 SWAP1 PUSH2 0x33A JUMP JUMPDEST PUSH4 0x4E487B71 PUSH1 0xE0 SHL DUP4 MSTORE PUSH1 0x41 PUSH1 0x4 MSTORE PUSH1 0x24 DUP4 REVERT JUMPDEST POP CALLVALUE PUSH2 0x136 JUMPI PUSH1 0x20 SWAP1 DUP2 PUSH1 0x3 NOT CALLDATASIZE ADD SLT PUSH2 0x136 JUMPI PUSH1 0x1 PUSH1 0x1 PUSH1 0x40 SHL SUB PUSH1 0x4 CALLDATALOAD DUP2 DUP2 GT PUSH2 0x132 JUMPI PUSH2 0x39F SWAP1 CALLDATASIZE SWAP1 PUSH1 0x4 ADD PUSH2 0x1EA5 JUMP JUMPDEST SWAP3 PUSH2 0x3A8 PUSH2 0x201A JUMP JUMPDEST DUP4 MLOAD SWAP2 DUP3 GT PUSH2 0x357 JUMPI PUSH2 0x3BC PUSH1 0x10 SLOAD PUSH2 0x1F4A JUMP JUMPDEST PUSH1 0x1F DUP2 GT PUSH2 0x46F JUMPI JUMPDEST POP DUP1 PUSH1 0x1F DUP4 GT PUSH1 0x1 EQ PUSH2 0x400 JUMPI POP DUP3 SWAP4 DUP3 SWAP4 SWAP3 PUSH2 0x3F5 JUMPI JUMPDEST POP POP DUP2 PUSH1 0x1 SHL SWAP2 PUSH1 0x0 NOT SWAP1 PUSH1 0x3 SHL SHR NOT AND OR PUSH1 0x10 SSTORE DUP1 RETURN JUMPDEST ADD MLOAD SWAP1 POP CODESIZE DUP1 PUSH2 0x3DD JUMP JUMPDEST PUSH1 0x10 DUP5 MSTORE PUSH1 0x1F NOT DUP4 AND SWAP5 PUSH1 0x0 DUP1 MLOAD PUSH1 0x20 PUSH2 0x218D DUP4 CODECOPY DUP2 MLOAD SWAP2 MSTORE SWAP3 SWAP2 DUP6 SWAP1 JUMPDEST DUP8 DUP3 LT PUSH2 0x457 JUMPI POP POP DUP4 PUSH1 0x1 SWAP6 SWAP7 LT PUSH2 0x43E JUMPI JUMPDEST POP POP POP DUP2 SHL ADD PUSH1 0x10 SSTORE DUP1 RETURN JUMPDEST ADD MLOAD PUSH1 0x0 NOT PUSH1 0xF8 DUP5 PUSH1 0x3 SHL AND SHR NOT AND SWAP1 SSTORE CODESIZE DUP1 DUP1 PUSH2 0x432 JUMP JUMPDEST DUP1 PUSH1 0x1 DUP6 SWAP7 DUP3 SWAP5 SWAP7 DUP7 ADD MLOAD DUP2 SSTORE ADD SWAP6 ADD SWAP4 ADD SWAP1 PUSH2 0x41E JUMP JUMPDEST PUSH2 0x4A4 SWAP1 PUSH1 0x10 DUP6 MSTORE PUSH1 0x0 DUP1 MLOAD PUSH1 0x20 PUSH2 0x218D DUP4 CODECOPY DUP2 MLOAD SWAP2 MSTORE PUSH1 0x1F DUP6 ADD PUSH1 0x5 SHR DUP2 ADD SWAP2 DUP5 DUP7 LT PUSH2 0x34D JUMPI PUSH1 0x1F ADD PUSH1 0x5 SHR ADD SWAP1 PUSH2 0x2046 JUMP JUMPDEST CODESIZE PUSH2 0x3C5 JUMP JUMPDEST POP CALLVALUE PUSH2 0x136 JUMPI DUP1 PUSH1 0x3 NOT CALLDATASIZE ADD SLT PUSH2 0x136 JUMPI PUSH1 0x40 MLOAD PUSH32 0x0 PUSH1 0x1 PUSH1 0x1 PUSH1 0xA0 SHL SUB AND DUP2 MSTORE PUSH1 0x20 SWAP1 RETURN JUMPDEST POP CALLVALUE PUSH2 0x136 JUMPI DUP1 PUSH1 0x3 NOT CALLDATASIZE ADD SLT PUSH2 0x136 JUMPI SLOAD PUSH1 0x40 MLOAD PUSH1 0x1 PUSH1 0x1 PUSH1 0xA0 SHL SUB SWAP1 SWAP2 AND DUP2 MSTORE PUSH1 0x20 SWAP1 RETURN JUMPDEST POP CALLVALUE PUSH2 0x136 JUMPI DUP1 PUSH1 0x3 NOT CALLDATASIZE ADD SLT PUSH2 0x136 JUMPI PUSH1 0x40 MLOAD PUSH1 0x0 PUSH1 0x10 SLOAD PUSH2 0x538 DUP2 PUSH2 0x1F4A JUMP JUMPDEST DUP1 DUP5 MSTORE SWAP1 PUSH1 0x1 SWAP1 DUP2 DUP2 AND SWAP1 DUP2 ISZERO PUSH2 0x1E6 JUMPI POP PUSH1 0x1 EQ PUSH2 0x561 JUMPI PUSH2 0x199 DUP5 PUSH2 0x185 DUP2 DUP7 SUB DUP3 PUSH2 0x1E69 JUMP JUMPDEST PUSH1 0x10 PUSH1 0x0 SWAP1 DUP2 MSTORE SWAP3 POP PUSH1 0x0 DUP1 MLOAD PUSH1 0x20 PUSH2 0x218D DUP4 CODECOPY DUP2 MLOAD SWAP2 MSTORE JUMPDEST DUP3 DUP5 LT PUSH2 0x592 JUMPI POP POP POP DUP2 ADD PUSH1 0x20 ADD PUSH2 0x185 DUP3 PUSH2 0x175 JUMP JUMPDEST DUP1 SLOAD PUSH1 0x20 DUP6 DUP8 ADD DUP2 ADD SWAP2 SWAP1 SWAP2 MSTORE SWAP1 SWAP4 ADD SWAP3 DUP2 ADD PUSH2 0x57A JUMP JUMPDEST POP CALLVALUE PUSH2 0x136 JUMPI DUP1 PUSH1 0x3 NOT CALLDATASIZE ADD SLT PUSH2 0x136 JUMPI PUSH1 0x40 MLOAD PUSH32 0x0 PUSH1 0x1 PUSH1 0x1 PUSH1 0xA0 SHL SUB AND DUP2 MSTORE PUSH1 0x20 SWAP1 RETURN JUMPDEST POP CALLVALUE PUSH2 0x136 JUMPI DUP1 PUSH1 0x3 NOT CALLDATASIZE ADD SLT PUSH2 0x136 JUMPI PUSH2 0x608 PUSH2 0x201A JUMP JUMPDEST PUSH1 0x0 DUP1 SLOAD PUSH1 0x1 PUSH1 0x1 PUSH1 0xA0 SHL SUB NOT DUP2 AND DUP3 SSTORE PUSH1 0x1 PUSH1 0x1 PUSH1 0xA0 SHL SUB AND PUSH32 0x8BE0079C531659141344CD1FD0A4F28419497F9722A3DAAFE3B4186F6B6457E0 DUP3 DUP1 LOG3 DUP1 RETURN JUMPDEST POP CALLVALUE PUSH2 0x136 JUMPI PUSH1 0x20 SWAP1 DUP2 PUSH1 0x3 NOT CALLDATASIZE ADD SLT PUSH2 0x136 JUMPI PUSH1 0x40 MLOAD PUSH2 0x669 DUP2 PUSH2 0x1E4E JUMP JUMPDEST PUSH1 0x1 SWAP3 DUP4 DUP3 MSTORE DUP1 DUP4 JUMPDEST DUP2 DUP2 LT PUSH2 0x866 JUMPI POP POP PUSH1 0x4 CALLDATALOAD DUP4 MSTORE PUSH1 0xD DUP2 MSTORE PUSH1 0x40 DUP4 KECCAK256 SWAP1 DUP5 PUSH1 0x40 MLOAD SWAP3 PUSH2 0x697 DUP5 PUSH2 0x1E4E JUMP JUMPDEST PUSH1 0x40 MLOAD PUSH2 0x6AF DUP2 PUSH2 0x6A8 DUP2 DUP6 PUSH2 0x1F84 JUMP JUMPDEST SUB DUP3 PUSH2 0x1E69 JUMP JUMPDEST DUP5 MSTORE ADD SWAP2 DUP3 SLOAD PUSH1 0x1 PUSH1 0x1 PUSH1 0x40 SHL SUB DUP2 GT PUSH2 0x850 JUMPI SWAP3 DUP6 SWAP2 DUP8 SWAP4 SWAP5 PUSH1 0x40 MLOAD SWAP1 PUSH1 0x5 SWAP4 PUSH2 0x6DE DUP9 DUP4 DUP8 SHL ADD DUP5 PUSH2 0x1E69 JUMP JUMPDEST DUP2 DUP4 MSTORE DUP6 MSTORE DUP7 DUP6 KECCAK256 DUP6 SWAP1 DUP9 DUP5 ADD JUMPDEST DUP4 DUP4 LT PUSH2 0x7FA JUMPI POP POP POP POP DUP6 DUP3 ADD MSTORE PUSH2 0x704 DUP7 PUSH2 0x20E4 JUMP JUMPDEST MSTORE PUSH2 0x70E DUP6 PUSH2 0x20E4 JUMP JUMPDEST POP PUSH1 0x40 MLOAD SWAP4 DUP1 DUP6 ADD SWAP2 DUP2 DUP7 MSTORE DUP7 MLOAD DUP1 SWAP4 MSTORE PUSH1 0x40 DUP7 ADD DUP3 PUSH1 0x40 DUP6 DUP5 SHL DUP10 ADD ADD SWAP9 ADD SWAP5 DUP1 SWAP3 JUMPDEST DUP6 DUP5 LT PUSH2 0x73F JUMPI DUP9 DUP11 SUB DUP10 RETURN JUMPDEST SWAP1 SWAP2 SWAP3 SWAP4 SWAP5 SWAP6 SWAP7 DUP1 SWAP10 PUSH1 0x3F NOT DUP11 DUP3 SUB ADD DUP6 MSTORE DUP7 DUP10 MLOAD SWAP2 DUP2 PUSH2 0x769 DUP5 MLOAD PUSH1 0x40 DUP5 MSTORE PUSH1 0x40 DUP5 ADD SWAP1 PUSH2 0x1F25 JUMP JUMPDEST SWAP4 ADD MLOAD SWAP1 DUP3 DUP2 DUP6 SUB SWAP2 ADD MSTORE DUP1 MLOAD DUP1 DUP5 MSTORE DUP3 DUP5 ADD SWAP1 DUP4 DUP1 DUP3 DUP10 SHL DUP8 ADD ADD SWAP4 ADD SWAP5 DUP9 JUMPDEST DUP8 DUP4 DUP3 LT PUSH2 0x7AE JUMPI POP POP POP POP POP DUP2 SWAP3 POP SWAP10 ADD SWAP5 ADD SWAP5 ADD SWAP3 SWAP6 SWAP5 SWAP4 SWAP2 SWAP1 SWAP9 SWAP7 SWAP9 PUSH2 0x732 JUMP JUMPDEST SWAP2 SWAP4 SWAP6 PUSH2 0x7E8 DUP2 SWAP3 SWAP5 SWAP7 PUSH1 0x1F NOT DUP8 DUP3 SUB ADD DUP10 MSTORE DUP10 MLOAD SWAP1 DUP4 PUSH2 0x7D8 DUP4 MLOAD PUSH1 0x40 DUP5 MSTORE PUSH1 0x40 DUP5 ADD SWAP1 PUSH2 0x1F25 JUMP JUMPDEST SWAP3 ADD MLOAD SWAP1 DUP5 DUP2 DUP5 SUB SWAP2 ADD MSTORE PUSH2 0x1F25 JUMP JUMPDEST SWAP8 ADD SWAP6 ADD SWAP2 ADD SWAP2 DUP12 SWAP5 SWAP6 SWAP4 SWAP2 SWAP3 PUSH2 0x78A JUMP JUMPDEST SWAP8 PUSH1 0x2 DUP11 DUP3 SWAP13 SWAP11 PUSH1 0x40 SWAP13 SWAP10 SWAP11 SWAP13 MLOAD PUSH2 0x811 DUP2 PUSH2 0x1E4E JUMP JUMPDEST PUSH1 0x40 MLOAD PUSH2 0x822 DUP2 PUSH2 0x6A8 DUP2 DUP11 PUSH2 0x1F84 JUMP JUMPDEST DUP2 MSTORE PUSH1 0x40 MLOAD PUSH2 0x837 DUP2 PUSH2 0x6A8 DUP2 DUP10 DUP12 ADD PUSH2 0x1F84 JUMP JUMPDEST DUP4 DUP3 ADD MSTORE DUP2 MSTORE ADD SWAP3 ADD SWAP3 ADD SWAP2 SWAP1 SWAP10 SWAP8 SWAP10 SWAP9 SWAP7 SWAP6 SWAP9 PUSH2 0x6EC JUMP JUMPDEST PUSH4 0x4E487B71 PUSH1 0xE0 SHL PUSH1 0x0 MSTORE PUSH1 0x41 PUSH1 0x4 MSTORE PUSH1 0x24 PUSH1 0x0 REVERT JUMPDEST PUSH2 0x86E PUSH2 0x20CB JUMP JUMPDEST DUP3 DUP3 DUP7 ADD ADD MSTORE ADD DUP2 SWAP1 PUSH2 0x672 JUMP JUMPDEST POP CALLVALUE PUSH2 0x136 JUMPI PUSH1 0x3 NOT PUSH1 0x60 CALLDATASIZE DUP3 ADD SLT PUSH2 0x1125 JUMPI PUSH1 0x24 CALLDATALOAD PUSH1 0x1 PUSH1 0x1 PUSH1 0x40 SHL SUB DUP2 GT PUSH2 0x132 JUMPI PUSH2 0x160 DUP1 SWAP3 DUP3 CALLDATASIZE SUB ADD SLT PUSH2 0x132 JUMPI PUSH1 0x40 MLOAD SWAP2 DUP3 ADD DUP3 DUP2 LT PUSH1 0x1 PUSH1 0x1 PUSH1 0x40 SHL SUB DUP3 GT OR PUSH2 0x1111 JUMPI PUSH1 0x40 MSTORE DUP1 PUSH1 0x4 ADD CALLDATALOAD PUSH1 0x1 PUSH1 0x1 PUSH1 0x40 SHL SUB DUP2 GT PUSH2 0x110D JUMPI PUSH2 0x8EC SWAP1 PUSH1 0x4 CALLDATASIZE SWAP2 DUP5 ADD ADD PUSH2 0x1EA5 JUMP JUMPDEST DUP3 MSTORE PUSH1 0x24 DUP2 ADD CALLDATALOAD PUSH1 0x1 PUSH1 0x1 PUSH1 0x40 SHL SUB DUP2 GT PUSH2 0x110D JUMPI PUSH2 0x911 SWAP1 PUSH1 0x4 CALLDATASIZE SWAP2 DUP5 ADD ADD PUSH2 0x1EA5 JUMP JUMPDEST PUSH1 0x20 DUP4 ADD MSTORE PUSH1 0x44 DUP2 ADD CALLDATALOAD PUSH1 0x1 PUSH1 0x1 PUSH1 0x40 SHL SUB DUP2 GT PUSH2 0x110D JUMPI PUSH2 0x939 SWAP1 PUSH1 0x4 CALLDATASIZE SWAP2 DUP5 ADD ADD PUSH2 0x1EA5 JUMP JUMPDEST PUSH1 0x40 DUP4 ADD MSTORE PUSH1 0x64 DUP2 ADD CALLDATALOAD PUSH1 0x1 PUSH1 0x1 PUSH1 0x40 SHL SUB DUP2 GT PUSH2 0x110D JUMPI PUSH2 0x961 SWAP1 PUSH1 0x4 CALLDATASIZE SWAP2 DUP5 ADD ADD PUSH2 0x1EA5 JUMP JUMPDEST PUSH1 0x60 DUP4 ADD MSTORE PUSH1 0x84 DUP2 ADD CALLDATALOAD PUSH1 0x1 PUSH1 0x1 PUSH1 0x40 SHL SUB DUP2 AND DUP2 SUB PUSH2 0x110D JUMPI PUSH1 0x80 DUP4 ADD MSTORE PUSH1 0xA4 DUP2 ADD CALLDATALOAD PUSH1 0x1 PUSH1 0x1 PUSH1 0x40 SHL SUB DUP2 GT PUSH2 0x110D JUMPI PUSH2 0x9A3 SWAP1 PUSH1 0x4 CALLDATASIZE SWAP2 DUP5 ADD ADD PUSH2 0x1EA5 JUMP JUMPDEST PUSH1 0xA0 DUP4 ADD MSTORE PUSH1 0xC4 DUP2 ADD CALLDATALOAD PUSH1 0x1 PUSH1 0x1 PUSH1 0x40 SHL SUB DUP2 GT PUSH2 0x110D JUMPI PUSH2 0x9CB SWAP1 PUSH1 0x4 CALLDATASIZE SWAP2 DUP5 ADD ADD PUSH2 0x1EA5 JUMP JUMPDEST PUSH1 0xC0 DUP4 ADD MSTORE PUSH1 0xE4 DUP2 ADD CALLDATALOAD PUSH1 0x1 PUSH1 0x1 PUSH1 0x40 SHL SUB DUP2 GT PUSH2 0x110D JUMPI PUSH2 0xA2B SWAP2 PUSH2 0x9FA PUSH2 0x144 SWAP3 PUSH1 0x4 CALLDATASIZE SWAP2 DUP5 ADD ADD PUSH2 0x1EA5 JUMP JUMPDEST PUSH1 0xE0 DUP6 ADD MSTORE PUSH2 0xA0C PUSH2 0x104 DUP3 ADD PUSH2 0x1EF1 JUMP JUMPDEST PUSH2 0x100 DUP6 ADD MSTORE PUSH2 0xA1F PUSH2 0x124 DUP3 ADD PUSH2 0x1EF1 JUMP JUMPDEST PUSH2 0x120 DUP6 ADD MSTORE ADD PUSH2 0x1EF1 JUMP JUMPDEST PUSH2 0x140 DUP3 ADD MSTORE PUSH1 0x44 CALLDATALOAD PUSH1 0x1 PUSH1 0x1 PUSH1 0x40 SHL SUB DUP2 GT PUSH2 0x132 JUMPI PUSH2 0xA50 SWAP1 CALLDATASIZE SWAP1 PUSH1 0x4 ADD PUSH2 0x1EA5 JUMP JUMPDEST SWAP1 PUSH32 0x0 PUSH1 0x1 PUSH1 0x1 PUSH1 0xA0 SHL SUB AND CALLER SUB PUSH2 0x10D1 JUMPI DUP2 MLOAD DUP4 SWAP2 SWAP1 ISZERO PUSH2 0xC0D JUMPI POP POP SWAP1 PUSH1 0x1 SWAP2 JUMPDEST PUSH1 0x4 CALLDATALOAD SWAP1 DUP2 DUP4 MSTORE PUSH1 0xE PUSH1 0x20 MSTORE PUSH1 0x40 DUP4 KECCAK256 SWAP4 DUP2 MLOAD SWAP5 PUSH1 0x1 PUSH1 0x1 PUSH1 0x40 SHL SUB DUP7 GT PUSH2 0xBF9 JUMPI PUSH2 0xABE DUP2 SLOAD PUSH2 0x1F4A JUMP JUMPDEST PUSH1 0x1F DUP2 GT PUSH2 0xBC9 JUMPI JUMPDEST POP PUSH1 0x20 SWAP6 PUSH1 0x1F DUP2 GT PUSH1 0x1 EQ PUSH2 0xB45 JUMPI DUP1 DUP7 SWAP8 PUSH32 0xDDC172D65D303FCD5ED22C1C42A67084CEC02F5F4BC98DB80F48CB658F941A9E SWAP7 SWAP8 SWAP2 PUSH2 0xB3A JUMPI JUMPDEST POP DUP2 PUSH1 0x1 SHL SWAP2 PUSH1 0x0 NOT SWAP1 PUSH1 0x3 SHL SHR NOT AND OR SWAP1 SSTORE JUMPDEST PUSH2 0xB34 PUSH1 0x40 MLOAD SWAP3 DUP4 SWAP3 ISZERO ISZERO DUP4 MSTORE PUSH1 0x40 PUSH1 0x20 DUP5 ADD MSTORE PUSH1 0x40 DUP4 ADD SWAP1 PUSH2 0x1F25 JUMP JUMPDEST SUB SWAP1 LOG2 DUP1 RETURN JUMPDEST SWAP1 POP DUP5 ADD MLOAD CODESIZE PUSH2 0xB02 JUMP JUMPDEST DUP2 DUP7 MSTORE PUSH1 0x20 DUP7 KECCAK256 SWAP7 PUSH1 0x1F NOT DUP3 AND DUP8 JUMPDEST DUP2 DUP2 LT PUSH2 0xBB1 JUMPI POP SWAP8 DUP3 SWAP2 PUSH1 0x1 SWAP4 PUSH32 0xDDC172D65D303FCD5ED22C1C42A67084CEC02F5F4BC98DB80F48CB658F941A9E SWAP9 SWAP10 SWAP11 LT PUSH2 0xB98 JUMPI JUMPDEST POP POP DUP2 SHL ADD SWAP1 SSTORE PUSH2 0xB16 JUMP JUMPDEST DUP7 ADD MLOAD PUSH1 0x0 NOT PUSH1 0xF8 DUP5 PUSH1 0x3 SHL AND SHR NOT AND SWAP1 SSTORE CODESIZE DUP1 PUSH2 0xB8C JUMP JUMPDEST DUP7 DUP4 ADD MLOAD DUP11 SSTORE PUSH1 0x1 SWAP1 SWAP10 ADD SWAP9 PUSH1 0x20 SWAP3 DUP4 ADD SWAP3 ADD PUSH2 0xB54 JUMP JUMPDEST PUSH2 0xBF3 SWAP1 DUP3 DUP8 MSTORE PUSH1 0x20 DUP8 KECCAK256 PUSH1 0x1F DUP10 ADD PUSH1 0x5 SHR DUP2 ADD SWAP2 PUSH1 0x20 DUP11 LT PUSH2 0x34D JUMPI PUSH1 0x1F ADD PUSH1 0x5 SHR ADD SWAP1 PUSH2 0x2046 JUMP JUMPDEST CODESIZE PUSH2 0xAC7 JUMP JUMPDEST PUSH4 0x4E487B71 PUSH1 0xE0 SHL DUP6 MSTORE PUSH1 0x41 PUSH1 0x4 MSTORE PUSH1 0x24 DUP6 REVERT JUMPDEST SWAP1 SWAP3 SWAP2 POP PUSH1 0x20 DUP2 ADD MLOAD SWAP1 PUSH2 0xC40 PUSH1 0x40 MLOAD PUSH2 0xC26 DUP2 PUSH2 0x1E4E JUMP JUMPDEST PUSH1 0x7 DUP2 MSTORE PUSH7 0x2A23A627A7A71D PUSH1 0xC9 SHL PUSH1 0x20 DUP3 ADD MSTORE DUP4 PUSH2 0x2118 JUMP JUMPDEST SWAP1 PUSH2 0xC6A PUSH1 0x40 MLOAD PUSH2 0xC50 DUP2 PUSH2 0x1E4E JUMP JUMPDEST PUSH1 0x7 DUP2 MSTORE PUSH7 0x2A23A627A3231D PUSH1 0xC9 SHL PUSH1 0x20 DUP3 ADD MSTORE DUP5 PUSH2 0x2118 JUMP JUMPDEST DUP3 SWAP1 DUP4 ISZERO PUSH2 0x10C9 JUMPI JUMPDEST POP PUSH2 0xC80 JUMPI JUMPDEST POP POP PUSH2 0xA92 JUMP JUMPDEST SWAP1 SWAP4 DUP3 MLOAD SWAP3 DUP4 PUSH1 0x7 LT ISZERO PUSH2 0x1092 JUMPI PUSH2 0xC97 DUP5 PUSH2 0x217D JUMP JUMPDEST SWAP4 PUSH2 0xCA1 DUP6 PUSH2 0x1E8A JUMP JUMPDEST SWAP5 PUSH2 0xCAF PUSH1 0x40 MLOAD SWAP7 DUP8 PUSH2 0x1E69 JUMP JUMPDEST DUP1 DUP7 MSTORE PUSH2 0xCBE PUSH1 0x1F NOT SWAP2 PUSH2 0x1E8A JUMP JUMPDEST ADD CALLDATASIZE PUSH1 0x20 DUP8 ADD CALLDATACOPY PUSH1 0x7 JUMPDEST DUP2 DUP2 LT PUSH2 0x1058 JUMPI POP POP PUSH1 0x2A DUP5 MLOAD SUB PUSH2 0x101A JUMPI DUP5 PUSH1 0x2 JUMPDEST PUSH1 0x2A DUP2 LT PUSH2 0xE8D JUMPI POP PUSH32 0x0 PUSH1 0x1 PUSH1 0x1 PUSH1 0xA0 SHL SUB AND SWAP1 DUP2 EXTCODESIZE ISZERO PUSH2 0xE89 JUMPI PUSH1 0x40 MLOAD PUSH4 0x77C43B83 PUSH1 0xE1 SHL DUP2 MSTORE PUSH1 0x1 PUSH1 0x1 PUSH1 0xA0 SHL SUB SWAP1 SWAP2 AND PUSH1 0x4 DUP3 ADD MSTORE DUP8 ISZERO ISZERO PUSH1 0x24 DUP3 ADD MSTORE SWAP1 DUP7 SWAP1 DUP3 SWAP1 PUSH1 0x44 SWAP1 DUP3 SWAP1 DUP5 SWAP1 GAS CALL SWAP1 DUP2 PUSH2 0xE5A JUMPI JUMPDEST POP PUSH2 0xE50 JUMPI POP POP PUSH1 0x28 PUSH2 0xE20 SWAP2 RETURNDATASIZE PUSH1 0x0 EQ PUSH2 0xE4B JUMPI RETURNDATASIZE PUSH2 0xD72 DUP2 PUSH2 0x1E8A JUMP JUMPDEST SWAP1 PUSH2 0xD80 PUSH1 0x40 MLOAD SWAP3 DUP4 PUSH2 0x1E69 JUMP JUMPDEST DUP2 MSTORE DUP6 PUSH1 0x20 RETURNDATASIZE SWAP3 ADD RETURNDATACOPY JUMPDEST PUSH1 0x1 SWAP6 ISZERO PUSH2 0xE27 JUMPI PUSH1 0x20 PUSH1 0x40 MLOAD PUSH2 0xDA0 DUP2 PUSH2 0x1E4E JUMP JUMPDEST PUSH1 0x3 DUP2 MSTORE PUSH3 0x13D38B PUSH1 0xEA SHL DUP3 DUP3 ADD MSTORE SWAP2 JUMPDEST ADD MLOAD PUSH1 0x40 MLOAD SWAP5 DUP6 SWAP3 PUSH6 0x22B93937B91 PUSH1 0xD5 SHL PUSH1 0x20 DUP6 ADD MSTORE PUSH2 0xDDC DUP2 MLOAD DUP1 SWAP3 PUSH1 0x20 PUSH1 0x26 DUP9 ADD SWAP2 ADD PUSH2 0x1F02 JUMP JUMPDEST DUP4 ADD PUSH2 0xDF2 DUP3 MLOAD DUP1 SWAP4 PUSH1 0x20 PUSH1 0x26 DUP6 ADD SWAP2 ADD PUSH2 0x1F02 JUMP JUMPDEST ADD PUSH2 0x1D1 PUSH1 0xF5 SHL PUSH1 0x26 DUP3 ADD MSTORE PUSH2 0xE11 DUP3 MLOAD DUP1 SWAP4 PUSH1 0x20 DUP8 DUP6 ADD SWAP2 ADD PUSH2 0x1F02 JUMP JUMPDEST ADD SUB PUSH1 0x8 DUP2 ADD DUP5 MSTORE ADD DUP3 PUSH2 0x1E69 JUMP JUMPDEST CODESIZE DUP1 PUSH2 0xC79 JUMP JUMPDEST PUSH1 0x20 PUSH1 0x40 MLOAD PUSH2 0xE35 DUP2 PUSH2 0x1E4E JUMP JUMPDEST PUSH1 0x4 DUP2 MSTORE PUSH4 0x13D1918B PUSH1 0xE2 SHL DUP3 DUP3 ADD MSTORE SWAP2 PUSH2 0xDB1 JUMP JUMPDEST PUSH2 0xD8A JUMP JUMPDEST SWAP3 POP SWAP4 POP POP PUSH2 0xE20 JUMP JUMPDEST PUSH1 0x1 PUSH1 0x1 PUSH1 0x40 SHL SUB DUP2 SWAP8 SWAP3 SWAP8 GT PUSH2 0xE75 JUMPI PUSH1 0x40 MSTORE SWAP5 CODESIZE PUSH2 0xD53 JUMP JUMPDEST PUSH4 0x4E487B71 PUSH1 0xE0 SHL DUP3 MSTORE PUSH1 0x41 PUSH1 0x4 MSTORE PUSH1 0x24 DUP3 REVERT JUMPDEST DUP7 DUP1 REVERT JUMPDEST SWAP1 PUSH2 0xE98 DUP3 DUP8 PUSH2 0x2107 JUMP JUMPDEST MLOAD PUSH1 0xF8 SHR PUSH1 0x30 DUP2 LT ISZERO DUP1 PUSH2 0x100F JUMPI JUMPDEST ISZERO PUSH2 0xF36 JUMPI PUSH1 0x1 PUSH1 0x1 PUSH1 0xA0 SHL SUB SWAP1 DUP2 AND PUSH1 0x2F NOT ADD SWAP1 DUP2 GT PUSH2 0xF22 JUMPI JUMPDEST PUSH1 0x4 DUP3 SWAP1 SHL PUSH1 0x10 PUSH1 0x1 PUSH1 0xA0 SHL SUB AND SWAP2 PUSH1 0x1 PUSH1 0x1 PUSH1 0xA0 SHL SUB AND DUP1 ISZERO SWAP1 DUP4 DIV PUSH1 0x10 EQ OR ISZERO PUSH2 0xF22 JUMPI PUSH1 0x1 PUSH1 0x1 PUSH1 0xA0 SHL SUB SWAP1 DUP2 AND SWAP2 SWAP1 SWAP2 ADD SWAP1 DUP2 GT PUSH2 0xF0E JUMPI PUSH2 0xF09 SWAP1 SWAP2 PUSH2 0x205D JUMP JUMPDEST PUSH2 0xCDE JUMP JUMPDEST PUSH4 0x4E487B71 PUSH1 0xE0 SHL DUP8 MSTORE PUSH1 0x11 PUSH1 0x4 MSTORE PUSH1 0x24 DUP8 REVERT JUMPDEST PUSH4 0x4E487B71 PUSH1 0xE0 SHL DUP9 MSTORE PUSH1 0x11 PUSH1 0x4 MSTORE PUSH1 0x24 DUP9 REVERT JUMPDEST PUSH1 0x41 DUP2 LT ISZERO DUP1 PUSH2 0x1004 JUMPI JUMPDEST ISZERO PUSH2 0xF71 JUMPI PUSH1 0x1 PUSH1 0x1 PUSH1 0xA0 SHL SUB SWAP1 DUP2 AND PUSH1 0x36 NOT ADD SWAP1 DUP2 GT ISZERO PUSH2 0xEC3 JUMPI PUSH4 0x4E487B71 PUSH1 0xE0 SHL DUP9 MSTORE PUSH1 0x11 PUSH1 0x4 MSTORE PUSH1 0x24 DUP9 REVERT JUMPDEST PUSH1 0x61 DUP2 LT ISZERO DUP1 PUSH2 0xFF9 JUMPI JUMPDEST ISZERO PUSH2 0xFA8 JUMPI PUSH1 0x56 NOT ADD PUSH1 0x1 PUSH1 0x1 PUSH1 0xA0 SHL SUB DUP2 GT ISZERO PUSH2 0xEC3 JUMPI PUSH4 0x4E487B71 PUSH1 0xE0 SHL DUP9 MSTORE PUSH1 0x11 PUSH1 0x4 MSTORE PUSH1 0x24 DUP9 REVERT JUMPDEST PUSH1 0x40 MLOAD PUSH3 0x461BCD PUSH1 0xE5 SHL DUP2 MSTORE PUSH1 0x20 PUSH1 0x4 DUP3 ADD MSTORE PUSH1 0x23 PUSH1 0x24 DUP3 ADD MSTORE PUSH32 0x496E76616C69642063686172616374657220696E206164647265737320737472 PUSH1 0x44 DUP3 ADD MSTORE PUSH3 0x696E67 PUSH1 0xE8 SHL PUSH1 0x64 DUP3 ADD MSTORE PUSH1 0x84 SWAP1 REVERT JUMPDEST POP PUSH1 0x66 DUP2 GT ISZERO PUSH2 0xF7C JUMP JUMPDEST POP PUSH1 0x46 DUP2 GT ISZERO PUSH2 0xF41 JUMP JUMPDEST POP PUSH1 0x39 DUP2 GT ISZERO PUSH2 0xEA7 JUMP JUMPDEST PUSH1 0x40 MLOAD PUSH3 0x461BCD PUSH1 0xE5 SHL DUP2 MSTORE PUSH1 0x20 PUSH1 0x4 DUP3 ADD MSTORE PUSH1 0x16 PUSH1 0x24 DUP3 ADD MSTORE PUSH22 0x92DCECC2D8D2C840C2C8C8E4CAE6E640D8CADCCEE8D PUSH1 0x53 SHL PUSH1 0x44 DUP3 ADD MSTORE PUSH1 0x64 SWAP1 REVERT JUMPDEST PUSH2 0x108D SWAP1 PUSH1 0x1 PUSH1 0x1 PUSH1 0xF8 SHL SUB NOT PUSH2 0x106F DUP3 DUP7 PUSH2 0x2107 JUMP JUMPDEST MLOAD AND PUSH2 0x1087 PUSH2 0x107D DUP4 PUSH2 0x217D JUMP JUMPDEST SWAP2 DUP11 BYTE SWAP2 DUP10 PUSH2 0x2107 JUMP JUMPDEST MSTORE8 PUSH2 0x205D JUMP JUMPDEST PUSH2 0xCC8 JUMP JUMPDEST PUSH1 0x40 MLOAD PUSH3 0x461BCD PUSH1 0xE5 SHL DUP2 MSTORE PUSH1 0x20 PUSH1 0x4 DUP3 ADD MSTORE PUSH1 0xF PUSH1 0x24 DUP3 ADD MSTORE PUSH15 0x496E76616C696420696E6469636573 PUSH1 0x88 SHL PUSH1 0x44 DUP3 ADD MSTORE PUSH1 0x64 SWAP1 REVERT JUMPDEST SWAP1 POP CODESIZE PUSH2 0xC73 JUMP JUMPDEST PUSH1 0x40 MLOAD PUSH3 0x461BCD PUSH1 0xE5 SHL DUP2 MSTORE PUSH1 0x20 PUSH1 0x4 DUP3 ADD MSTORE PUSH1 0x14 PUSH1 0x24 DUP3 ADD MSTORE PUSH20 0x43616C6C6572206973206E6F74206F7261636C65 PUSH1 0x60 SHL PUSH1 0x44 DUP3 ADD MSTORE PUSH1 0x64 SWAP1 REVERT JUMPDEST DUP4 DUP1 REVERT JUMPDEST PUSH4 0x4E487B71 PUSH1 0xE0 SHL DUP5 MSTORE PUSH1 0x41 PUSH1 0x4 MSTORE PUSH1 0x24 DUP5 REVERT JUMPDEST POP DUP1 REVERT JUMPDEST POP CALLVALUE PUSH2 0x136 JUMPI PUSH1 0x20 CALLDATASIZE PUSH1 0x3 NOT ADD SLT PUSH2 0x136 JUMPI PUSH1 0x4 CALLDATALOAD PUSH1 0x1 PUSH1 0x1 PUSH1 0x40 SHL SUB DUP2 GT PUSH2 0x1125 JUMPI PUSH2 0x115A SWAP1 CALLDATASIZE SWAP1 PUSH1 0x4 ADD PUSH2 0x1EA5 JUMP JUMPDEST PUSH1 0x40 MLOAD PUSH4 0x603E9995 PUSH1 0xE1 SHL DUP2 MSTORE SWAP1 SWAP2 SWAP1 DUP2 DUP2 PUSH1 0x4 DUP2 PUSH32 0x0 PUSH1 0x1 PUSH1 0x1 PUSH1 0xA0 SHL SUB AND GAS STATICCALL SWAP1 DUP2 ISZERO PUSH2 0x160E JUMPI DUP3 SWAP2 PUSH2 0x1DD4 JUMPI JUMPDEST POP PUSH1 0x40 MLOAD SWAP1 DUP3 PUSH1 0xF SLOAD PUSH2 0x11BB DUP2 PUSH2 0x1F4A JUMP JUMPDEST SWAP1 PUSH1 0x1 DUP2 AND SWAP1 DUP2 ISZERO PUSH2 0x1DB9 JUMPI POP PUSH1 0x1 EQ PUSH2 0x1D78 JUMPI JUMPDEST POP DUP2 MLOAD SWAP1 PUSH2 0x11E2 DUP3 DUP3 PUSH1 0x20 DUP7 ADD PUSH2 0x1F02 JUMP JUMPDEST ADD DUP3 DUP5 PUSH1 0x10 SLOAD SWAP3 PUSH2 0x11F2 DUP5 PUSH2 0x1F4A JUMP JUMPDEST SWAP4 PUSH1 0x1 DUP2 AND SWAP1 DUP2 ISZERO PUSH2 0x1D60 JUMPI POP PUSH1 0x1 EQ PUSH2 0x1D1D JUMPI JUMPDEST POP PUSH2 0x122D SWAP3 POP DUP7 MLOAD SWAP1 PUSH2 0x121E DUP3 DUP3 PUSH1 0x20 DUP12 ADD PUSH2 0x1F02 JUMP JUMPDEST ADD SUB PUSH1 0x1F NOT DUP2 ADD DUP5 MSTORE DUP4 PUSH2 0x1E69 JUMP JUMPDEST PUSH1 0x40 MLOAD SWAP3 PUSH2 0x123A DUP5 PUSH2 0x1E4E JUMP JUMPDEST PUSH1 0x4 DUP5 MSTORE PUSH4 0x3AB9B2B9 PUSH1 0xE1 SHL PUSH1 0x20 DUP6 ADD MSTORE PUSH2 0x1253 PUSH2 0x20CB JUMP JUMPDEST POP PUSH1 0x40 MLOAD SWAP4 PUSH2 0x1261 DUP6 PUSH2 0x1E4E JUMP JUMPDEST PUSH1 0x1 DUP6 MSTORE DUP2 JUMPDEST PUSH1 0x20 DUP2 LT PUSH2 0x1D06 JUMPI POP PUSH1 0x40 MLOAD SWAP1 PUSH2 0x127D DUP3 PUSH2 0x1E4E JUMP JUMPDEST DUP2 MSTORE PUSH2 0x128F PUSH1 0x20 DUP3 ADD SWAP6 DUP1 DUP8 MSTORE PUSH2 0x20E4 JUMP JUMPDEST MLOAD PUSH1 0x40 MLOAD SWAP1 PUSH2 0x129D DUP3 PUSH2 0x1E4E JUMP JUMPDEST PUSH1 0x4 DUP3 MSTORE PUSH4 0x1D195E1D PUSH1 0xE2 SHL PUSH1 0x20 DUP4 ADD MSTORE MSTORE DUP4 PUSH1 0x20 PUSH2 0x12BC DUP8 MLOAD PUSH2 0x20E4 JUMP JUMPDEST MLOAD ADD MSTORE PUSH1 0x11 SLOAD SWAP5 PUSH2 0x12CC DUP7 PUSH2 0x205D JUMP JUMPDEST PUSH1 0x11 SSTORE DUP6 DUP4 MSTORE PUSH1 0xD PUSH1 0x20 MSTORE PUSH1 0x40 DUP4 KECCAK256 SWAP2 MLOAD DUP1 MLOAD SWAP1 PUSH1 0x1 PUSH1 0x1 PUSH1 0x40 SHL SUB DUP3 GT PUSH2 0xBF9 JUMPI DUP2 SWAP1 PUSH2 0x12FA DUP6 SLOAD PUSH2 0x1F4A JUMP JUMPDEST PUSH1 0x1F DUP2 GT PUSH2 0x1CD6 JUMPI JUMPDEST POP PUSH1 0x20 SWAP1 PUSH1 0x1F DUP4 GT PUSH1 0x1 EQ PUSH2 0x1C72 JUMPI DUP7 SWAP3 PUSH2 0x1C67 JUMPI JUMPDEST POP POP DUP2 PUSH1 0x1 SHL SWAP2 PUSH1 0x0 NOT SWAP1 PUSH1 0x3 SHL SHR NOT AND OR DUP3 SSTORE JUMPDEST MLOAD SWAP1 DUP2 MLOAD SWAP2 PUSH9 0x10000000000000000 DUP4 GT PUSH2 0x1111 JUMPI PUSH1 0x1 DUP3 ADD SLOAD DUP4 PUSH1 0x1 DUP5 ADD SSTORE DUP1 DUP5 LT PUSH2 0x1BE4 JUMPI JUMPDEST POP PUSH1 0x20 PUSH1 0x1 SWAP2 ADD SWAP2 ADD DUP4 MSTORE PUSH1 0x20 DUP4 KECCAK256 DUP4 SWAP2 JUMPDEST DUP4 DUP4 LT PUSH2 0x1997 JUMPI POP POP POP POP PUSH1 0x40 MLOAD PUSH4 0x3C38A5F5 PUSH1 0xE0 SHL DUP2 MSTORE DUP5 PUSH1 0x4 DUP3 ADD MSTORE PUSH1 0x40 PUSH1 0x24 DUP3 ADD MSTORE PUSH2 0x1A0 PUSH1 0x44 DUP3 ADD MSTORE DUP2 PUSH1 0x1 SLOAD PUSH2 0x13A2 DUP2 PUSH2 0x1F4A JUMP JUMPDEST SWAP1 DUP2 PUSH2 0x1E4 DUP6 ADD MSTORE PUSH1 0x1 DUP2 AND SWAP1 DUP2 PUSH1 0x0 EQ PUSH2 0x197A JUMPI POP PUSH1 0x1 EQ PUSH2 0x1923 JUMPI JUMPDEST POP PUSH1 0x2 SLOAD DUP4 SIGNEXTEND PUSH1 0x64 DUP4 ADD MSTORE DUP2 PUSH1 0x43 NOT SWAP2 DUP3 DUP3 DUP3 SUB ADD PUSH1 0x84 DUP4 ADD MSTORE DUP5 SWAP1 PUSH1 0x3 SLOAD SWAP1 PUSH2 0x13E9 DUP3 PUSH2 0x1F4A JUMP JUMPDEST DUP1 DUP3 MSTORE SWAP2 PUSH1 0x1 DUP2 AND SWAP1 DUP2 ISZERO PUSH2 0x1904 JUMPI POP PUSH1 0x1 EQ PUSH2 0x18A6 JUMPI JUMPDEST POP POP PUSH1 0x4 SLOAD PUSH4 0xFFFFFFFF DUP2 AND PUSH1 0xA4 DUP5 ADD MSTORE PUSH1 0x20 SHR DUP6 SIGNEXTEND PUSH1 0xC4 DUP4 ADD MSTORE DUP3 DUP3 DUP3 SUB ADD PUSH1 0xE4 DUP4 ADD MSTORE DUP5 SWAP3 PUSH1 0x5 SWAP2 DUP3 SLOAD SWAP1 PUSH2 0x1437 DUP3 PUSH2 0x1F4A JUMP JUMPDEST DUP1 DUP3 MSTORE SWAP2 PUSH1 0x1 DUP2 AND SWAP1 DUP2 ISZERO PUSH2 0x1886 JUMPI POP PUSH1 0x1 EQ PUSH2 0x1823 JUMPI JUMPDEST POP POP PUSH1 0x6 SLOAD PUSH2 0x104 DUP5 ADD MSTORE DUP3 DUP5 SUB DUP2 ADD PUSH2 0x124 DUP5 ADD MSTORE PUSH1 0x7 SLOAD DUP7 SWAP5 PUSH2 0x1473 DUP3 PUSH2 0x1F4A JUMP JUMPDEST DUP1 DUP3 MSTORE SWAP2 PUSH1 0x1 DUP2 AND SWAP1 DUP2 ISZERO PUSH2 0x1803 JUMPI POP PUSH1 0x1 EQ PUSH2 0x179F JUMPI JUMPDEST POP POP PUSH1 0x8 SLOAD PUSH2 0x144 DUP5 ADD MSTORE PUSH1 0x9 SLOAD PUSH2 0x164 DUP5 ADD MSTORE DUP3 DUP5 SUB DUP2 ADD PUSH2 0x184 DUP5 ADD MSTORE PUSH1 0xA SLOAD DUP7 SWAP5 PUSH2 0x14B8 DUP3 PUSH2 0x1F4A JUMP JUMPDEST DUP1 DUP3 MSTORE SWAP2 PUSH1 0x1 DUP2 AND SWAP1 DUP2 ISZERO PUSH2 0x177F JUMPI POP PUSH1 0x1 EQ PUSH2 0x171B JUMPI JUMPDEST POP POP DUP3 DUP5 SUB DUP2 ADD PUSH2 0x1A4 DUP5 ADD MSTORE PUSH1 0xB SLOAD DUP7 SWAP5 PUSH2 0x14EB DUP3 PUSH2 0x1F4A JUMP JUMPDEST DUP1 DUP3 MSTORE SWAP2 PUSH1 0x1 DUP2 AND SWAP1 DUP2 ISZERO PUSH2 0x16FB JUMPI POP PUSH1 0x1 EQ PUSH2 0x1697 JUMPI JUMPDEST POP POP DUP3 DUP5 SUB ADD PUSH2 0x1C4 DUP4 ADD MSTORE DUP5 SWAP3 PUSH1 0xC SLOAD PUSH2 0x151D DUP2 PUSH2 0x1F4A JUMP JUMPDEST DUP1 DUP4 MSTORE SWAP3 PUSH1 0x1 DUP3 AND SWAP2 DUP3 ISZERO PUSH2 0x1678 JUMPI POP POP PUSH1 0x1 EQ PUSH2 0x1619 JUMPI JUMPDEST POP PUSH1 0x20 SWAP3 DUP3 SWAP1 SUB SWAP1 POP DUP2 DUP6 PUSH32 0x0 PUSH1 0x1 PUSH1 0x1 PUSH1 0xA0 SHL SUB AND GAS CALL DUP1 ISZERO PUSH2 0x160E JUMPI PUSH2 0x15E3 JUMPI JUMPDEST PUSH1 0x20 DUP6 DUP1 PUSH32 0x3551B986D041CBC5634E1ECF13EA7EB57C58E6ED33C521FC03C6F524E128317 PUSH2 0x15BD DUP11 PUSH2 0x15D8 DUP11 PUSH2 0x15CA DUP12 PUSH1 0x40 MLOAD SWAP6 DUP7 SWAP6 PUSH1 0x60 DUP8 MSTORE PUSH1 0x60 DUP8 ADD SWAP1 PUSH2 0x1F25 JUMP JUMPDEST SWAP1 DUP6 DUP3 SUB DUP12 DUP8 ADD MSTORE PUSH2 0x1F25 JUMP JUMPDEST SWAP1 DUP4 DUP3 SUB PUSH1 0x40 DUP6 ADD MSTORE PUSH2 0x1F25 JUMP JUMPDEST SUB SWAP1 LOG2 PUSH1 0x40 MLOAD SWAP1 DUP2 MSTORE RETURN JUMPDEST PUSH1 0x20 SWAP1 DUP2 RETURNDATASIZE DUP4 GT PUSH2 0x1607 JUMPI JUMPDEST PUSH2 0x15F9 DUP2 DUP4 PUSH2 0x1E69 JUMP JUMPDEST DUP2 ADD SUB SLT PUSH2 0x136 JUMPI DUP1 PUSH2 0x1578 JUMP JUMPDEST POP RETURNDATASIZE PUSH2 0x15EF JUMP JUMPDEST PUSH1 0x40 MLOAD RETURNDATASIZE DUP5 DUP3 RETURNDATACOPY RETURNDATASIZE SWAP1 REVERT JUMPDEST PUSH1 0xC DUP7 MSTORE SWAP3 POP DUP5 SWAP1 PUSH32 0xDF6966C971051C3D54EC59162606531493A51404A002842F56009D7E5CF4A8C7 JUMPDEST DUP2 DUP4 LT PUSH2 0x165A JUMPI POP POP PUSH1 0x20 DUP3 SWAP2 DUP2 SWAP5 ADD ADD SWAP3 PUSH2 0x1536 JUMP JUMPDEST PUSH1 0x20 SWAP2 SWAP5 SWAP4 POP DUP1 PUSH1 0x1 SWAP2 SLOAD DUP4 DUP6 DUP8 ADD ADD MSTORE ADD SWAP2 ADD SWAP1 SWAP3 DUP5 SWAP3 SWAP4 PUSH2 0x1643 JUMP JUMPDEST PUSH1 0x20 SWAP7 POP DUP7 SWAP4 SWAP3 POP SWAP4 DUP6 SWAP5 PUSH1 0xFF NOT AND DUP5 DUP5 ADD MSTORE ISZERO ISZERO SWAP1 SHL ADD ADD SWAP3 PUSH2 0x1536 JUMP JUMPDEST SWAP4 SWAP3 SWAP2 SWAP5 POP PUSH1 0xB DUP8 MSTORE PUSH32 0x175B7A638427703F0DBE7BB9BBF987A2551717B34E79F33B5B1008D1FA01DB9 SWAP4 DUP8 SWAP2 JUMPDEST DUP1 DUP4 LT PUSH2 0x16DD JUMPI POP PUSH1 0x20 SWAP3 SWAP4 SWAP5 POP ADD ADD SWAP3 CODESIZE DUP1 PUSH2 0x1503 JUMP JUMPDEST SWAP4 POP SWAP2 SWAP4 PUSH1 0x1 DUP2 PUSH1 0x20 SWAP3 SLOAD DUP4 DUP6 DUP8 ADD ADD MSTORE ADD SWAP2 ADD SWAP1 SWAP4 SWAP2 DUP7 SWAP4 PUSH2 0x16C5 JUMP JUMPDEST SWAP1 POP PUSH1 0x20 SWAP4 SWAP7 POP PUSH1 0xFF SWAP3 SWAP2 SWAP3 NOT AND DUP4 DUP4 ADD MSTORE ISZERO ISZERO DUP4 SHL ADD ADD SWAP3 CODESIZE DUP1 PUSH2 0x1503 JUMP JUMPDEST SWAP4 SWAP3 SWAP2 SWAP5 POP PUSH1 0xA DUP8 MSTORE PUSH32 0xC65A7BB8D6351C1CF70C95A316CC6A92839C986682D98BC35F958F4883F9D2A8 SWAP4 DUP8 SWAP2 JUMPDEST DUP1 DUP4 LT PUSH2 0x1761 JUMPI POP PUSH1 0x20 SWAP3 SWAP4 SWAP5 POP ADD ADD SWAP3 CODESIZE DUP1 PUSH2 0x14D0 JUMP JUMPDEST SWAP4 POP SWAP2 SWAP4 PUSH1 0x1 DUP2 PUSH1 0x20 SWAP3 SLOAD DUP4 DUP6 DUP8 ADD ADD MSTORE ADD SWAP2 ADD SWAP1 SWAP4 SWAP2 DUP7 SWAP4 PUSH2 0x1749 JUMP JUMPDEST SWAP1 POP PUSH1 0x20 SWAP4 SWAP7 POP PUSH1 0xFF SWAP3 SWAP2 SWAP3 NOT AND DUP4 DUP4 ADD MSTORE ISZERO ISZERO DUP4 SHL ADD ADD SWAP3 CODESIZE DUP1 PUSH2 0x14D0 JUMP JUMPDEST SWAP4 SWAP3 SWAP2 SWAP5 POP PUSH1 0x7 DUP8 MSTORE PUSH32 0xA66CC928B5EDB82AF9BD49922954155AB7B0942694BEA4CE44661D9A8736C688 SWAP4 DUP8 SWAP2 JUMPDEST DUP1 DUP4 LT PUSH2 0x17E5 JUMPI POP PUSH1 0x20 SWAP3 SWAP4 SWAP5 POP ADD ADD SWAP3 CODESIZE DUP1 PUSH2 0x148B JUMP JUMPDEST SWAP4 POP SWAP2 SWAP4 PUSH1 0x1 DUP2 PUSH1 0x20 SWAP3 SLOAD DUP4 DUP6 DUP8 ADD ADD MSTORE ADD SWAP2 ADD SWAP1 SWAP4 SWAP2 DUP7 SWAP4 PUSH2 0x17CD JUMP JUMPDEST SWAP1 POP PUSH1 0x20 SWAP4 SWAP7 POP PUSH1 0xFF SWAP3 SWAP2 SWAP3 NOT AND DUP4 DUP4 ADD MSTORE ISZERO ISZERO DUP4 SHL ADD ADD SWAP3 CODESIZE DUP1 PUSH2 0x148B JUMP JUMPDEST SWAP4 SWAP3 DUP1 SWAP3 SWAP6 POP DUP8 MSTORE PUSH32 0x36B6384B5ECA791C62761152D0C79BB0604C104A5FB6F4EB0703F3154BB3DB0 SWAP4 DUP8 SWAP2 JUMPDEST DUP1 DUP4 LT PUSH2 0x1868 JUMPI POP PUSH1 0x20 SWAP3 SWAP4 SWAP5 POP ADD ADD SWAP3 CODESIZE DUP1 PUSH2 0x144F JUMP JUMPDEST SWAP4 POP SWAP2 SWAP4 PUSH1 0x1 DUP2 PUSH1 0x20 SWAP3 SLOAD DUP4 DUP6 DUP8 ADD ADD MSTORE ADD SWAP2 ADD SWAP1 SWAP4 SWAP2 DUP7 SWAP4 PUSH2 0x1850 JUMP JUMPDEST SWAP1 POP PUSH1 0x20 SWAP4 SWAP7 POP PUSH1 0xFF SWAP3 SWAP2 SWAP3 NOT AND DUP4 DUP4 ADD MSTORE ISZERO ISZERO DUP4 SHL ADD ADD SWAP3 CODESIZE DUP1 PUSH2 0x144F JUMP JUMPDEST PUSH1 0x3 DUP8 MSTORE SWAP1 SWAP3 SWAP2 POP DUP6 SWAP1 PUSH32 0xC2575A0E9E593C00F959F8C92F12DB2869C3395A3B0502D05E2516446F71F85B JUMPDEST DUP5 DUP4 LT PUSH2 0x18E8 JUMPI POP PUSH1 0x20 SWAP3 SWAP4 POP ADD ADD CODESIZE DUP1 PUSH2 0x1401 JUMP JUMPDEST PUSH1 0x20 SWAP2 SWAP4 POP DUP1 PUSH1 0x1 SWAP2 SLOAD DUP4 DUP6 DUP8 ADD ADD MSTORE ADD SWAP2 ADD SWAP1 SWAP2 DUP6 SWAP3 PUSH2 0x18D2 JUMP JUMPDEST SWAP1 POP PUSH1 0x20 SWAP4 POP PUSH1 0xFF SWAP3 SWAP2 SWAP3 NOT AND DUP4 DUP4 ADD MSTORE ISZERO ISZERO PUSH1 0x5 SHL ADD ADD CODESIZE DUP1 PUSH2 0x1401 JUMP JUMPDEST PUSH1 0x1 DUP5 MSTORE SWAP1 POP DUP3 PUSH32 0xB10E2D527612073B26EECDFD717E6A320CF44B4AFAC2B0732D9FCBE2B7FA0CF6 JUMPDEST DUP3 DUP3 LT PUSH2 0x1962 JUMPI POP PUSH2 0x204 SWAP2 POP DUP3 ADD ADD CODESIZE PUSH2 0x13C0 JUMP JUMPDEST PUSH1 0x1 DUP2 PUSH1 0x20 SWAP3 SLOAD PUSH2 0x204 DUP6 DUP9 ADD ADD MSTORE ADD SWAP2 ADD SWAP1 PUSH2 0x194C JUMP JUMPDEST SWAP3 POP POP PUSH2 0x204 SWAP2 PUSH1 0xFF NOT AND DUP3 DUP5 ADD MSTORE ISZERO ISZERO PUSH1 0x5 SHL DUP3 ADD ADD CODESIZE PUSH2 0x13C0 JUMP JUMPDEST DUP1 MLOAD DUP1 MLOAD DUP1 MLOAD SWAP1 PUSH1 0x1 PUSH1 0x1 PUSH1 0x40 SHL SUB DUP3 GT PUSH2 0x1BD0 JUMPI PUSH2 0x19B6 DUP6 SLOAD PUSH2 0x1F4A JUMP JUMPDEST PUSH1 0x1F DUP2 GT PUSH2 0x1BA0 JUMPI JUMPDEST POP PUSH1 0x20 SWAP1 PUSH1 0x1F DUP4 GT PUSH1 0x1 EQ PUSH2 0x1B36 JUMPI PUSH1 0x20 SWAP4 SWAP3 SWAP2 DUP10 SWAP2 DUP4 PUSH2 0x1B2B JUMPI JUMPDEST POP POP DUP2 PUSH1 0x1 SHL SWAP2 PUSH1 0x0 NOT SWAP1 PUSH1 0x3 SHL SHR NOT AND OR DUP5 SSTORE JUMPDEST ADD MLOAD DUP1 MLOAD SWAP1 PUSH1 0x1 PUSH1 0x1 PUSH1 0x40 SHL SUB DUP3 GT PUSH2 0x1B17 JUMPI PUSH2 0x1A10 PUSH1 0x1 DUP6 ADD SLOAD PUSH2 0x1F4A JUMP JUMPDEST PUSH1 0x1F DUP2 GT PUSH2 0x1AD9 JUMPI JUMPDEST POP PUSH1 0x20 SWAP1 PUSH1 0x1F DUP4 GT PUSH1 0x1 EQ PUSH2 0x1A67 JUMPI SWAP3 DUP3 PUSH1 0x2 SWAP4 PUSH1 0x20 SWAP4 PUSH1 0x1 SWAP7 DUP12 SWAP3 PUSH2 0x1A5C JUMPI JUMPDEST POP POP PUSH1 0x0 NOT PUSH1 0x3 DUP4 SWAP1 SHL SHR NOT AND SWAP1 DUP6 SHL OR DUP6 DUP6 ADD SSTORE JUMPDEST ADD SWAP3 ADD SWAP3 ADD SWAP2 SWAP1 PUSH2 0x1368 JUMP JUMPDEST ADD MLOAD SWAP1 POP CODESIZE DUP1 PUSH2 0x1A3A JUMP JUMPDEST SWAP1 PUSH1 0x1 DUP6 ADD DUP9 MSTORE PUSH1 0x20 DUP9 KECCAK256 SWAP2 DUP9 JUMPDEST PUSH1 0x1F NOT DUP6 AND DUP2 LT PUSH2 0x1AC1 JUMPI POP DUP4 PUSH1 0x20 SWAP4 PUSH1 0x1 SWAP7 SWAP4 DUP8 SWAP4 PUSH1 0x2 SWAP8 PUSH1 0x1F NOT DUP2 AND LT PUSH2 0x1AA8 JUMPI JUMPDEST POP POP POP DUP2 SHL ADD DUP5 DUP7 ADD SSTORE PUSH2 0x1A50 JUMP JUMPDEST ADD MLOAD PUSH1 0x0 NOT PUSH1 0xF8 DUP5 PUSH1 0x3 SHL AND SHR NOT AND SWAP1 SSTORE CODESIZE DUP1 DUP1 PUSH2 0x1A99 JUMP JUMPDEST SWAP2 SWAP3 PUSH1 0x20 PUSH1 0x1 DUP2 SWAP3 DUP7 DUP6 ADD MLOAD DUP2 SSTORE ADD SWAP5 ADD SWAP3 ADD PUSH2 0x1A75 JUMP JUMPDEST PUSH2 0x1B07 SWAP1 PUSH1 0x1 DUP7 ADD DUP10 MSTORE PUSH1 0x20 DUP10 KECCAK256 PUSH1 0x5 PUSH1 0x1F DUP7 ADD DUP2 SHR DUP3 ADD SWAP3 PUSH1 0x20 DUP8 LT PUSH2 0x1B0D JUMPI JUMPDEST PUSH1 0x1F ADD SWAP1 SHR ADD SWAP1 PUSH2 0x2046 JUMP JUMPDEST CODESIZE PUSH2 0x1A19 JUMP JUMPDEST SWAP2 SWAP3 POP DUP3 SWAP2 PUSH2 0x1AFB JUMP JUMPDEST PUSH4 0x4E487B71 PUSH1 0xE0 SHL DUP8 MSTORE PUSH1 0x41 PUSH1 0x4 MSTORE PUSH1 0x24 DUP8 REVERT JUMPDEST ADD MLOAD SWAP1 POP CODESIZE DUP1 PUSH2 0x19DB JUMP JUMPDEST SWAP1 DUP6 DUP10 MSTORE PUSH1 0x20 DUP10 KECCAK256 SWAP2 DUP10 JUMPDEST PUSH1 0x1F NOT DUP6 AND DUP2 LT PUSH2 0x1B88 JUMPI POP SWAP2 DUP4 SWAP2 PUSH1 0x1 SWAP4 PUSH1 0x20 SWAP7 SWAP6 PUSH1 0x1F NOT DUP2 AND LT PUSH2 0x1B6F JUMPI JUMPDEST POP POP POP DUP2 SHL ADD DUP5 SSTORE PUSH2 0x19F0 JUMP JUMPDEST ADD MLOAD PUSH1 0x0 NOT PUSH1 0xF8 DUP5 PUSH1 0x3 SHL AND SHR NOT AND SWAP1 SSTORE CODESIZE DUP1 DUP1 PUSH2 0x1B62 JUMP JUMPDEST SWAP2 SWAP3 PUSH1 0x20 PUSH1 0x1 DUP2 SWAP3 DUP7 DUP6 ADD MLOAD DUP2 SSTORE ADD SWAP5 ADD SWAP3 ADD PUSH2 0x1B41 JUMP JUMPDEST PUSH2 0x1BCA SWAP1 DUP7 DUP11 MSTORE PUSH1 0x20 DUP11 KECCAK256 PUSH1 0x5 PUSH1 0x1F DUP7 ADD DUP2 SHR DUP3 ADD SWAP3 PUSH1 0x20 DUP8 LT PUSH2 0x1B0D JUMPI PUSH1 0x1F ADD SWAP1 SHR ADD SWAP1 PUSH2 0x2046 JUMP JUMPDEST CODESIZE PUSH2 0x19BF JUMP JUMPDEST PUSH4 0x4E487B71 PUSH1 0xE0 SHL DUP9 MSTORE PUSH1 0x41 PUSH1 0x4 MSTORE PUSH1 0x24 DUP9 REVERT JUMPDEST PUSH1 0x1 PUSH1 0x1 PUSH1 0xFF SHL SUB DUP2 DUP2 AND DUP3 SUB PUSH2 0x1C53 JUMPI DUP5 AND DUP5 SUB PUSH2 0x1C3F JUMPI PUSH1 0x1 DUP4 ADD DUP6 MSTORE PUSH1 0x20 DUP6 KECCAK256 DUP5 PUSH1 0x1 SHL DUP2 ADD JUMPDEST DUP3 PUSH1 0x1 SHL DUP3 ADD DUP2 LT PUSH2 0x1C21 JUMPI POP POP PUSH2 0x1356 JUMP JUMPDEST DUP1 PUSH2 0x1C2D PUSH1 0x2 SWAP3 PUSH2 0x2082 JUMP JUMPDEST PUSH2 0x1C39 PUSH1 0x1 DUP3 ADD PUSH2 0x2082 JUMP JUMPDEST ADD PUSH2 0x1C0E JUMP JUMPDEST PUSH4 0x4E487B71 PUSH1 0xE0 SHL DUP6 MSTORE PUSH1 0x11 PUSH1 0x4 MSTORE PUSH1 0x24 DUP6 REVERT JUMPDEST PUSH4 0x4E487B71 PUSH1 0xE0 SHL DUP7 MSTORE PUSH1 0x11 PUSH1 0x4 MSTORE PUSH1 0x24 DUP7 REVERT JUMPDEST ADD MLOAD SWAP1 POP CODESIZE DUP1 PUSH2 0x1319 JUMP JUMPDEST DUP6 DUP8 MSTORE PUSH1 0x20 DUP8 KECCAK256 SWAP3 POP PUSH1 0x1F NOT DUP5 AND DUP8 JUMPDEST DUP2 DUP2 LT PUSH2 0x1CBE JUMPI POP SWAP1 DUP5 PUSH1 0x1 SWAP6 SWAP5 SWAP4 SWAP3 LT PUSH2 0x1CA5 JUMPI JUMPDEST POP POP POP DUP2 SHL ADD DUP3 SSTORE PUSH2 0x132E JUMP JUMPDEST ADD MLOAD PUSH1 0x0 NOT PUSH1 0xF8 DUP5 PUSH1 0x3 SHL AND SHR NOT AND SWAP1 SSTORE CODESIZE DUP1 DUP1 PUSH2 0x1C98 JUMP JUMPDEST SWAP3 SWAP4 PUSH1 0x20 PUSH1 0x1 DUP2 SWAP3 DUP8 DUP7 ADD MLOAD DUP2 SSTORE ADD SWAP6 ADD SWAP4 ADD PUSH2 0x1C82 JUMP JUMPDEST PUSH2 0x1D00 SWAP1 DUP7 DUP9 MSTORE PUSH1 0x20 DUP9 KECCAK256 PUSH1 0x1F DUP6 ADD PUSH1 0x5 SHR DUP2 ADD SWAP2 PUSH1 0x20 DUP7 LT PUSH2 0x34D JUMPI PUSH1 0x1F ADD PUSH1 0x5 SHR ADD SWAP1 PUSH2 0x2046 JUMP JUMPDEST CODESIZE PUSH2 0x1303 JUMP JUMPDEST PUSH1 0x20 SWAP1 PUSH2 0x1D11 PUSH2 0x20CB JUMP JUMPDEST DUP3 DUP3 DUP10 ADD ADD MSTORE ADD PUSH2 0x1267 JUMP JUMPDEST PUSH1 0x10 DUP8 MSTORE SWAP1 POP DUP6 PUSH1 0x0 DUP1 MLOAD PUSH1 0x20 PUSH2 0x218D DUP4 CODECOPY DUP2 MLOAD SWAP2 MSTORE JUMPDEST DUP5 DUP3 LT PUSH2 0x1D49 JUMPI POP POP SWAP2 PUSH2 0x122D SWAP3 ADD CODESIZE PUSH2 0x1207 JUMP JUMPDEST DUP1 SLOAD DUP3 DUP5 ADD MSTORE DUP7 SWAP4 POP PUSH1 0x20 SWAP1 SWAP2 ADD SWAP1 PUSH1 0x1 ADD PUSH2 0x1D34 JUMP JUMPDEST PUSH1 0xFF NOT AND DUP3 MSTORE POP PUSH2 0x122D SWAP4 DUP1 ISZERO ISZERO MUL ADD SWAP1 POP CODESIZE PUSH2 0x1207 JUMP JUMPDEST PUSH1 0xF DUP6 MSTORE SWAP1 POP DUP4 PUSH1 0x0 DUP1 MLOAD PUSH1 0x20 PUSH2 0x21AD DUP4 CODECOPY DUP2 MLOAD SWAP2 MSTORE JUMPDEST DUP3 DUP3 LT PUSH2 0x1DA3 JUMPI POP POP DUP3 ADD PUSH1 0x20 ADD CODESIZE PUSH2 0x11D0 JUMP JUMPDEST PUSH1 0x1 DUP2 PUSH1 0x20 SWAP3 SLOAD DUP4 DUP6 DUP10 ADD ADD MSTORE ADD SWAP2 ADD SWAP1 PUSH2 0x1D8F JUMP JUMPDEST SWAP1 POP PUSH1 0x20 SWAP3 POP PUSH1 0xFF NOT AND DUP3 DUP6 ADD MSTORE DUP1 ISZERO ISZERO MUL DUP4 ADD ADD CODESIZE PUSH2 0x11D0 JUMP JUMPDEST SWAP1 POP RETURNDATASIZE DUP1 DUP4 DUP4 RETURNDATACOPY PUSH2 0x1DE5 DUP2 DUP4 PUSH2 0x1E69 JUMP JUMPDEST DUP2 ADD SWAP1 PUSH1 0x20 DUP2 DUP4 SUB SLT PUSH2 0x132 JUMPI DUP1 MLOAD SWAP1 PUSH1 0x1 PUSH1 0x1 PUSH1 0x40 SHL SUB DUP3 GT PUSH2 0x110D JUMPI ADD DUP2 PUSH1 0x1F DUP3 ADD SLT ISZERO PUSH2 0x132 JUMPI DUP1 MLOAD SWAP1 PUSH2 0x1E1B DUP3 PUSH2 0x1E8A JUMP JUMPDEST SWAP3 PUSH2 0x1E29 PUSH1 0x40 MLOAD SWAP5 DUP6 PUSH2 0x1E69 JUMP JUMPDEST DUP3 DUP5 MSTORE PUSH1 0x20 DUP4 DUP4 ADD ADD GT PUSH2 0x110D JUMPI SWAP1 PUSH2 0x1E48 SWAP2 PUSH1 0x20 DUP1 DUP6 ADD SWAP2 ADD PUSH2 0x1F02 JUMP JUMPDEST CODESIZE PUSH2 0x11A9 JUMP JUMPDEST PUSH1 0x40 DUP2 ADD SWAP1 DUP2 LT PUSH1 0x1 PUSH1 0x1 PUSH1 0x40 SHL SUB DUP3 GT OR PUSH2 0x850 JUMPI PUSH1 0x40 MSTORE JUMP JUMPDEST SWAP1 PUSH1 0x1F DUP1 NOT SWAP2 ADD AND DUP2 ADD SWAP1 DUP2 LT PUSH1 0x1 PUSH1 0x1 PUSH1 0x40 SHL SUB DUP3 GT OR PUSH2 0x850 JUMPI PUSH1 0x40 MSTORE JUMP JUMPDEST PUSH1 0x1 PUSH1 0x1 PUSH1 0x40 SHL SUB DUP2 GT PUSH2 0x850 JUMPI PUSH1 0x1F ADD PUSH1 0x1F NOT AND PUSH1 0x20 ADD SWAP1 JUMP JUMPDEST DUP2 PUSH1 0x1F DUP3 ADD SLT ISZERO PUSH2 0x1EEC JUMPI DUP1 CALLDATALOAD SWAP1 PUSH2 0x1EBC DUP3 PUSH2 0x1E8A JUMP JUMPDEST SWAP3 PUSH2 0x1ECA PUSH1 0x40 MLOAD SWAP5 DUP6 PUSH2 0x1E69 JUMP JUMPDEST DUP3 DUP5 MSTORE PUSH1 0x20 DUP4 DUP4 ADD ADD GT PUSH2 0x1EEC JUMPI DUP2 PUSH1 0x0 SWAP3 PUSH1 0x20 DUP1 SWAP4 ADD DUP4 DUP7 ADD CALLDATACOPY DUP4 ADD ADD MSTORE SWAP1 JUMP JUMPDEST PUSH1 0x0 DUP1 REVERT JUMPDEST CALLDATALOAD SWAP1 PUSH4 0xFFFFFFFF DUP3 AND DUP3 SUB PUSH2 0x1EEC JUMPI JUMP JUMPDEST PUSH1 0x0 JUMPDEST DUP4 DUP2 LT PUSH2 0x1F15 JUMPI POP POP PUSH1 0x0 SWAP2 ADD MSTORE JUMP JUMPDEST DUP2 DUP2 ADD MLOAD DUP4 DUP3 ADD MSTORE PUSH1 0x20 ADD PUSH2 0x1F05 JUMP JUMPDEST SWAP1 PUSH1 0x20 SWAP2 PUSH2 0x1F3E DUP2 MLOAD DUP1 SWAP3 DUP2 DUP6 MSTORE DUP6 DUP1 DUP7 ADD SWAP2 ADD PUSH2 0x1F02 JUMP JUMPDEST PUSH1 0x1F ADD PUSH1 0x1F NOT AND ADD ADD SWAP1 JUMP JUMPDEST SWAP1 PUSH1 0x1 DUP3 DUP2 SHR SWAP3 AND DUP1 ISZERO PUSH2 0x1F7A JUMPI JUMPDEST PUSH1 0x20 DUP4 LT EQ PUSH2 0x1F64 JUMPI JUMP JUMPDEST PUSH4 0x4E487B71 PUSH1 0xE0 SHL PUSH1 0x0 MSTORE PUSH1 0x22 PUSH1 0x4 MSTORE PUSH1 0x24 PUSH1 0x0 REVERT JUMPDEST SWAP2 PUSH1 0x7F AND SWAP2 PUSH2 0x1F59 JUMP JUMPDEST SWAP1 PUSH1 0x0 SWAP3 SWAP2 DUP1 SLOAD SWAP2 PUSH2 0x1F95 DUP4 PUSH2 0x1F4A JUMP JUMPDEST SWAP2 DUP3 DUP3 MSTORE PUSH1 0x1 SWAP4 DUP5 DUP2 AND SWAP1 DUP2 PUSH1 0x0 EQ PUSH2 0x1FF7 JUMPI POP PUSH1 0x1 EQ PUSH2 0x1FB7 JUMPI JUMPDEST POP POP POP POP JUMP JUMPDEST SWAP1 SWAP2 SWAP4 SWAP5 POP PUSH1 0x0 MSTORE PUSH1 0x20 SWAP3 DUP4 PUSH1 0x0 KECCAK256 SWAP3 DUP5 PUSH1 0x0 SWAP5 JUMPDEST DUP4 DUP7 LT PUSH2 0x1FE3 JUMPI POP POP POP POP ADD ADD SWAP1 CODESIZE DUP1 DUP1 DUP1 PUSH2 0x1FB1 JUMP JUMPDEST DUP1 SLOAD DUP6 DUP8 ADD DUP4 ADD MSTORE SWAP5 ADD SWAP4 DUP6 SWAP1 DUP3 ADD PUSH2 0x1FCC JUMP JUMPDEST SWAP3 SWAP5 POP POP POP PUSH1 0x20 SWAP4 SWAP5 POP PUSH1 0xFF NOT AND DUP4 DUP4 ADD MSTORE ISZERO ISZERO PUSH1 0x5 SHL ADD ADD SWAP1 CODESIZE DUP1 DUP1 DUP1 PUSH2 0x1FB1 JUMP JUMPDEST PUSH1 0x0 SLOAD PUSH1 0x1 PUSH1 0x1 PUSH1 0xA0 SHL SUB AND CALLER SUB PUSH2 0x202E JUMPI JUMP JUMPDEST PUSH1 0x40 MLOAD PUSH4 0x118CDAA7 PUSH1 0xE0 SHL DUP2 MSTORE CALLER PUSH1 0x4 DUP3 ADD MSTORE PUSH1 0x24 SWAP1 REVERT JUMPDEST DUP2 DUP2 LT PUSH2 0x2051 JUMPI POP POP JUMP JUMPDEST PUSH1 0x0 DUP2 SSTORE PUSH1 0x1 ADD PUSH2 0x2046 JUMP JUMPDEST PUSH1 0x0 NOT DUP2 EQ PUSH2 0x206C JUMPI PUSH1 0x1 ADD SWAP1 JUMP JUMPDEST PUSH4 0x4E487B71 PUSH1 0xE0 SHL PUSH1 0x0 MSTORE PUSH1 0x11 PUSH1 0x4 MSTORE PUSH1 0x24 PUSH1 0x0 REVERT JUMPDEST PUSH2 0x208C DUP2 SLOAD PUSH2 0x1F4A JUMP JUMPDEST SWAP1 DUP2 PUSH2 0x2096 JUMPI POP POP JUMP JUMPDEST DUP2 PUSH1 0x1F PUSH1 0x0 SWAP4 GT PUSH1 0x1 EQ PUSH2 0x20A8 JUMPI POP SSTORE JUMP JUMPDEST SWAP1 DUP1 DUP4 SWAP2 DUP3 MSTORE PUSH2 0x20C7 PUSH1 0x1F PUSH1 0x20 DUP5 KECCAK256 SWAP5 ADD PUSH1 0x5 SHR DUP5 ADD PUSH1 0x1 DUP6 ADD PUSH2 0x2046 JUMP JUMPDEST SSTORE SSTORE JUMP JUMPDEST PUSH1 0x40 MLOAD SWAP1 PUSH2 0x20D8 DUP3 PUSH2 0x1E4E JUMP JUMPDEST PUSH1 0x60 PUSH1 0x20 DUP4 DUP3 DUP2 MSTORE ADD MSTORE JUMP JUMPDEST DUP1 MLOAD ISZERO PUSH2 0x20F1 JUMPI PUSH1 0x20 ADD SWAP1 JUMP JUMPDEST PUSH4 0x4E487B71 PUSH1 0xE0 SHL PUSH1 0x0 MSTORE PUSH1 0x32 PUSH1 0x4 MSTORE PUSH1 0x24 PUSH1 0x0 REVERT JUMPDEST SWAP1 DUP2 MLOAD DUP2 LT ISZERO PUSH2 0x20F1 JUMPI ADD PUSH1 0x20 ADD SWAP1 JUMP JUMPDEST SWAP1 DUP1 MLOAD DUP3 MLOAD LT PUSH2 0x2176 JUMPI PUSH1 0x0 SWAP1 DUP2 JUMPDEST DUP2 MLOAD DUP2 LT ISZERO PUSH2 0x216D JUMPI PUSH1 0x1 PUSH1 0x1 PUSH1 0xF8 SHL SUB NOT DUP1 PUSH2 0x2144 DUP4 DUP8 PUSH2 0x2107 JUMP JUMPDEST MLOAD AND SWAP1 PUSH2 0x2151 DUP4 DUP6 PUSH2 0x2107 JUMP JUMPDEST MLOAD AND SUB PUSH2 0x2166 JUMPI PUSH2 0x2161 SWAP1 PUSH2 0x205D JUMP JUMPDEST PUSH2 0x2127 JUMP JUMPDEST POP POP SWAP1 POP SWAP1 JUMP JUMPDEST POP POP POP POP PUSH1 0x1 SWAP1 JUMP JUMPDEST POP POP PUSH1 0x0 SWAP1 JUMP JUMPDEST PUSH1 0x6 NOT DUP2 ADD SWAP2 SWAP1 DUP3 GT PUSH2 0x206C JUMPI JUMP INVALID SHL PUSH9 0x47DC741A1B0CD08D27 DUP9 GASLIMIT 0xF9 0xD8 NOT 0xD8 PUSH28 0x734759AFB55FE2DE5CB82A9AE6728D1108E10BCB7C27DDDFC02ED9D6 SWAP4 LOG0 PUSH21 0x39D026CF4EA4240B40F7D581AC802A26469706673 PC 0x22 SLT KECCAK256 0x2E PUSH14 0x357FA5B33E3384998C2C22C3D534 JUMPDEST 0xAB 0xE0 MOD 0xC6 0x5E DUP1 JUMPDEST DUP14 OR RETURNDATASIZE CALLER MLOAD 0xE8 0xD1 CALLDATASIZE PUSH5 0x736F6C6343 STOP ADDMOD EQ STOP CALLER "
        },
        "methodIdentifiers": {
          "getMessageHistory(uint256)": "54a470fc",
          "onOracleOpenAiLlmResponse(uint256,(string,string,string,string,uint64,string,string,string,uint32,uint32,uint32),string)": "4cecd88e",
          "oracleAddress()": "a89ae4ba",
          "owner()": "8da5cb5b",
          "postMessage()": "7be14234",
          "preMessage()": "ddaaff2a",
          "registry()": "7b103999",
          "renounceOwnership()": "715018a6",
          "sendMessage(string)": "469c8110",
          "setPostMessage(string)": "bc5147be",
          "setPreMessage(string)": "dceae618",
          "transferOwnership(address)": "f2fde38b"
        }
      }
    }
  }
}