{
  "contracts/SmartHomeRegistry.sol": {
    "SmartHomeRegistry": {
      "abi": [
        {
          "inputs": [
            {
              "internalType": "address",
              "name": "admin",
              "type": "address"
            }
          ],
          "stateMutability": "nonpayable",
          "type": "constructor"
        },
        {
          "inputs": [],
          "name": "LightAlreadyRegistered",
          "type": "error"
        },
        {
          "inputs": [],
          "name": "LightNotFound",
          "type": "error"
        },
        {
          "inputs": [],
          "name": "NotOperator",
          "type": "error"
        },
        {
          "inputs": [
            {
              "internalType": "address",
              "name": "owner",
              "type": "address"
            }
          ],
          "name": "OwnableInvalidOwner",
          "type": "error"
        },
        {
          "inputs": [
            {
              "internalType": "address",
              "name": "account",
              "type": "address"
            }
          ],
          "name": "OwnableUnauthorizedAccount",
          "type": "error"
        },
        {
          "inputs": [
            {
              "internalType": "uint256",
              "name": "value",
              "type": "uint256"
            },
            {
              "internalType": "uint256",
              "name": "length",
              "type": "uint256"
            }
          ],
          "name": "StringsInsufficientHexLength",
          "type": "error"
        },
        {
          "anonymous": false,
          "inputs": [
            {
              "indexed": true,
              "internalType": "address",
              "name": "previousOwner",
              "type": "address"
            },
            {
              "indexed": true,
              "internalType": "address",
              "name": "newOwner",
              "type": "address"
            }
          ],
          "name": "OwnershipTransferred",
          "type": "event"
        },
        {
          "anonymous": false,
          "inputs": [
            {
              "indexed": true,
              "internalType": "address",
              "name": "xmtpAddress",
              "type": "address"
            },
            {
              "indexed": false,
              "internalType": "string",
              "name": "roomName",
              "type": "string"
            }
          ],
          "name": "RegisterLight",
          "type": "event"
        },
        {
          "anonymous": false,
          "inputs": [
            {
              "indexed": true,
              "internalType": "address",
              "name": "xmtpAddress",
              "type": "address"
            }
          ],
          "name": "RemoveLight",
          "type": "event"
        },
        {
          "anonymous": false,
          "inputs": [
            {
              "indexed": true,
              "internalType": "address",
              "name": "operator",
              "type": "address"
            },
            {
              "indexed": false,
              "internalType": "bool",
              "name": "enabled",
              "type": "bool"
            }
          ],
          "name": "SetOperator",
          "type": "event"
        },
        {
          "anonymous": false,
          "inputs": [
            {
              "indexed": true,
              "internalType": "address",
              "name": "xmtpAddress",
              "type": "address"
            },
            {
              "indexed": false,
              "internalType": "bool",
              "name": "on",
              "type": "bool"
            }
          ],
          "name": "ToggleLight",
          "type": "event"
        },
        {
          "inputs": [
            {
              "internalType": "address",
              "name": "",
              "type": "address"
            }
          ],
          "name": "lights",
          "outputs": [
            {
              "internalType": "address",
              "name": "xmtpAddress",
              "type": "address"
            },
            {
              "internalType": "string",
              "name": "roomName",
              "type": "string"
            },
            {
              "internalType": "bool",
              "name": "on",
              "type": "bool"
            }
          ],
          "stateMutability": "view",
          "type": "function"
        },
        {
          "inputs": [],
          "name": "makePrompt",
          "outputs": [
            {
              "internalType": "string",
              "name": "prompt",
              "type": "string"
            }
          ],
          "stateMutability": "view",
          "type": "function"
        },
        {
          "inputs": [
            {
              "internalType": "address",
              "name": "",
              "type": "address"
            }
          ],
          "name": "operators",
          "outputs": [
            {
              "internalType": "bool",
              "name": "",
              "type": "bool"
            }
          ],
          "stateMutability": "view",
          "type": "function"
        },
        {
          "inputs": [],
          "name": "owner",
          "outputs": [
            {
              "internalType": "address",
              "name": "",
              "type": "address"
            }
          ],
          "stateMutability": "view",
          "type": "function"
        },
        {
          "inputs": [
            {
              "internalType": "address",
              "name": "xmtpAddress",
              "type": "address"
            },
            {
              "internalType": "string",
              "name": "roomName",
              "type": "string"
            }
          ],
          "name": "registerLight",
          "outputs": [],
          "stateMutability": "nonpayable",
          "type": "function"
        },
        {
          "inputs": [
            {
              "internalType": "address",
              "name": "xmtpAddress",
              "type": "address"
            }
          ],
          "name": "removeLight",
          "outputs": [],
          "stateMutability": "nonpayable",
          "type": "function"
        },
        {
          "inputs": [],
          "name": "renounceOwnership",
          "outputs": [],
          "stateMutability": "nonpayable",
          "type": "function"
        },
        {
          "inputs": [
            {
              "internalType": "address",
              "name": "operator",
              "type": "address"
            },
            {
              "internalType": "bool",
              "name": "enabled",
              "type": "bool"
            }
          ],
          "name": "setOperator",
          "outputs": [],
          "stateMutability": "nonpayable",
          "type": "function"
        },
        {
          "inputs": [
            {
              "internalType": "address",
              "name": "xmtpAddress",
              "type": "address"
            },
            {
              "internalType": "bool",
              "name": "on",
              "type": "bool"
            }
          ],
          "name": "toggleLight",
          "outputs": [],
          "stateMutability": "nonpayable",
          "type": "function"
        },
        {
          "inputs": [
            {
              "internalType": "address",
              "name": "newOwner",
              "type": "address"
            }
          ],
          "name": "transferOwnership",
          "outputs": [],
          "stateMutability": "nonpayable",
          "type": "function"
        }
      ],
      "evm": {
        "bytecode": {
          "linkReferences": {},
          "object": "6080346100d357601f610dcc38819003918201601f19168301916001600160401b038311848410176100d8578084926020946040528339810103126100d357516001600160a01b0390818116908190036100d35780156100ba57600080546001600160a01b031981168317825560408051949093918291167f8be0079c531659141344cd1fd0a4f28419497f9722a3daafe3b4186f6b6457e08480a38152600360205220805460ff19166001179055610cdd90816100ef8239f35b604051631e4fbdf760e01b815260006004820152602490fd5b600080fd5b634e487b7160e01b600052604160045260246000fdfe608080604052600436101561001357600080fd5b60003560e01c90816313e7c9d814610ade57508063415548a614610816578063558a7297146107b0578063715018a6146107575780638da5cb5b1461072e578063a0577a031461062a578063c07d332a14610378578063d97405f2146101df578063ef887706146101205763f2fde38b1461008d57600080fd5b3461011b57602036600319011261011b576100a6610b19565b6100ae610c1e565b6001600160a01b0390811690811561010257600054826bffffffffffffffffffffffff60a01b821617600055167f8be0079c531659141344cd1fd0a4f28419497f9722a3daafe3b4186f6b6457e0600080a3005b604051631e4fbdf760e01b815260006004820152602490fd5b600080fd5b3461011b5761012e36610b2f565b33600052600360205260ff60406000205416156101cd576001600160a01b03918216600081815260016020526040902054909216156101bb5760207fe383923203389967d779f7fa2340c10cc5a1a54b08d1bc722ba1a3825ffcc1cc9183600052600182526101b08160026040600020019060ff801983541691151516179055565b6040519015158152a2005b60405163480e5cff60e01b8152600490fd5b604051631f0853c160e21b8152600490fd5b3461011b57602036600319011261011b576101f8610b19565b610200610c1e565b60028054916001600160a01b03908116919060005b8481106102ac57836000848282526001602052604082208281556001810161023d8154610b5e565b908161026f575b505001557fc177086ede7b67e51d90c0f53cdfcaeb997eb41c93505646f213a57c13ffb381600080a2005b81601f8693116001146102865750555b8480610244565b9080839182526102a5601f60208420940160051c840160018501610c4a565b555561027f565b80846102b88493610c61565b939054600394851b1c16146102d7575b6102d29150610c98565b610215565b6000199186830187811161036257846102f261032192610c61565b905490841b1c1661030284610c61565b90919082549060031b9160018060a01b03809116831b921b1916179055565b8454801561034c576102d2938591019161033a83610c61565b81939154921b1b1916905584556102c8565b634e487b7160e01b600052603160045260246000fd5b634e487b7160e01b600052601160045260246000fd5b3461011b57600036600319011261011b576060600254906000915b8083106103b457604051602080825281906103b090820185610bf9565b0390f35b906103be83610c61565b60018060a01b0391549060031b1c1680600052600190602090828252826040600020019281604051906060820182811067ffffffffffffffff82111761061457604052602a82528482019360403686378251156105fe576030855382518410156105fe5760219160788385015360295b8581116105b857506105995760005282855260ff600260406000200154166000146105765760405161045f81610b98565b60048152630e93d38b60e21b86820152955b604051976104878151809289808d019101610bd6565b8801601160f91b878201526000948254926104a184610b5e565b938281169081156105535750600114610512575b505050505093610505936104f56002948897946104e461050b9a9661111d60f11b835251809389840190610bd6565b019183519384918785019101610bd6565b0103601d19810184520182610bb4565b92610c98565b9190610393565b9091929394955060005286600020906000915b84831061054057505050010190836104f584836104e46104b5565b8054848401870152918801918101610525565b60ff19168487015250505081151590910201019150836104f584836104e46104b5565b60405161058281610b98565b60058152640e93d1918b60da1b8682015295610471565b6044906040519063e22e27eb60e01b8252600482015260146024820152fd5b90600f811660108110156105fe5785518310156105fe576f181899199a1a9b1b9c1cb0b131b232b360811b901a85830189015360041c908015610362576000190161042e565b634e487b7160e01b600052603260045260246000fd5b634e487b7160e01b600052604160045260246000fd5b3461011b5760208060031936011261011b576001600160a01b038061064d610b19565b1660005281600191828252604060002090815416928082019060405193849260009281549161067b83610b5e565b8087529282811690811561070d57506001146106d1575b505050506106c5926106aa60ff936002930386610bb4565b01541691606060405195869586528501526060840190610bf9565b90151560408301520390f35b6000908152838120939450925b8284106106f757505050820101856106aa836002610692565b80548885018601528795509284019281016106de565b60ff191685880152505050151560051b8301019050856106aa836002610692565b3461011b57600036600319011261011b576000546040516001600160a01b039091168152602090f35b3461011b57600036600319011261011b57610770610c1e565b600080546001600160a01b0319811682556001600160a01b03167f8be0079c531659141344cd1fd0a4f28419497f9722a3daafe3b4186f6b6457e08280a3005b3461011b5760207f1618a22a3b00b9ac70fd5a82f1f5cdd8cb272bd0f1b740ddf7c26ab05881dd5b6107e136610b2f565b92906107eb610c1e565b6001600160a01b031660008181526003835260409020805460ff191660ff86151516179055926101b0565b3461011b57604036600319011261011b5761082f610b19565b67ffffffffffffffff90816024351161011b5736602360243501121561011b57602435600401359180831161011b5736602484813501011161011b57610873610c1e565b6001600160a01b0382811660009081526001602052604090205416610acc576040519060608201828110828211176106145760409081526001600160a01b0384168352516108cb601f8601601f191660200182610bb4565b84815284602480350160208301376000818601602090810182905284810192835260408086018381526001600160a01b03888116855260019384905291909320955186546001600160a01b0319169116178555915180519193928501928211610614576109388354610b5e565b601f8111610a8f575b50602090601f8311600114610a1f5791806002949261098f979694600092610a14575b50508160011b916000199060031b1c19161790555b51151591019060ff801983541691151516179055565b6002549068010000000000000000821015610614576109d9816103028460017f182a3b2c0d2e06374abf1e63a9deaa7fe39e88c05ae13745e2fa8c1486fb50f39601600255610c61565b604080518092602082528560208301528560248035018484013760008287018401526001600160a01b031694601f01601f19168101030190a2005b015190508980610964565b90601f198316918460005260206000209260005b818110610a77575092600192859261098f9998966002989610610a5e575b505050811b019055610979565b015160001960f88460031b161c19169055898080610a51565b92936020600181928786015181550195019301610a33565b610abc90846000526020600020601f850160051c81019160208610610ac2575b601f0160051c0190610c4a565b87610941565b9091508190610aaf565b60405163673cc4bd60e01b8152600490fd5b3461011b57602036600319011261011b576020906001600160a01b03610b02610b19565b166000526003825260ff6040600020541615158152f35b600435906001600160a01b038216820361011b57565b604090600319011261011b576004356001600160a01b038116810361011b5790602435801515810361011b5790565b90600182811c92168015610b8e575b6020831014610b7857565b634e487b7160e01b600052602260045260246000fd5b91607f1691610b6d565b6040810190811067ffffffffffffffff82111761061457604052565b90601f8019910116810190811067ffffffffffffffff82111761061457604052565b60005b838110610be95750506000910152565b8181015183820152602001610bd9565b90602091610c1281518092818552858086019101610bd6565b601f01601f1916010190565b6000546001600160a01b03163303610c3257565b60405163118cdaa760e01b8152336004820152602490fd5b818110610c55575050565b60008155600101610c4a565b6002548110156105fe5760026000527f405787fa12a823e0f2b7631cc41b3ba8828b3321ca811111fa75cd3aa3bb5ace0190600090565b6000198114610362576001019056fea2646970667358221220a0dd4578d669219753b3a4263e66226fa2a81dcfc5657452cb2d2bb6d0b0432e64736f6c63430008140033",
          "opcodes": "PUSH1 0x80 CALLVALUE PUSH2 0xD3 JUMPI PUSH1 0x1F PUSH2 0xDCC CODESIZE DUP2 SWAP1 SUB SWAP2 DUP3 ADD PUSH1 0x1F NOT AND DUP4 ADD SWAP2 PUSH1 0x1 PUSH1 0x1 PUSH1 0x40 SHL SUB DUP4 GT DUP5 DUP5 LT OR PUSH2 0xD8 JUMPI DUP1 DUP5 SWAP3 PUSH1 0x20 SWAP5 PUSH1 0x40 MSTORE DUP4 CODECOPY DUP2 ADD SUB SLT PUSH2 0xD3 JUMPI MLOAD PUSH1 0x1 PUSH1 0x1 PUSH1 0xA0 SHL SUB SWAP1 DUP2 DUP2 AND SWAP1 DUP2 SWAP1 SUB PUSH2 0xD3 JUMPI DUP1 ISZERO PUSH2 0xBA JUMPI PUSH1 0x0 DUP1 SLOAD PUSH1 0x1 PUSH1 0x1 PUSH1 0xA0 SHL SUB NOT DUP2 AND DUP4 OR DUP3 SSTORE PUSH1 0x40 DUP1 MLOAD SWAP5 SWAP1 SWAP4 SWAP2 DUP3 SWAP2 AND PUSH32 0x8BE0079C531659141344CD1FD0A4F28419497F9722A3DAAFE3B4186F6B6457E0 DUP5 DUP1 LOG3 DUP2 MSTORE PUSH1 0x3 PUSH1 0x20 MSTORE KECCAK256 DUP1 SLOAD PUSH1 0xFF NOT AND PUSH1 0x1 OR SWAP1 SSTORE PUSH2 0xCDD SWAP1 DUP2 PUSH2 0xEF DUP3 CODECOPY RETURN JUMPDEST PUSH1 0x40 MLOAD PUSH4 0x1E4FBDF7 PUSH1 0xE0 SHL DUP2 MSTORE PUSH1 0x0 PUSH1 0x4 DUP3 ADD MSTORE PUSH1 0x24 SWAP1 REVERT JUMPDEST PUSH1 0x0 DUP1 REVERT JUMPDEST PUSH4 0x4E487B71 PUSH1 0xE0 SHL PUSH1 0x0 MSTORE PUSH1 0x41 PUSH1 0x4 MSTORE PUSH1 0x24 PUSH1 0x0 REVERT INVALID PUSH1 0x80 DUP1 PUSH1 0x40 MSTORE PUSH1 0x4 CALLDATASIZE LT ISZERO PUSH2 0x13 JUMPI PUSH1 0x0 DUP1 REVERT JUMPDEST PUSH1 0x0 CALLDATALOAD PUSH1 0xE0 SHR SWAP1 DUP2 PUSH4 0x13E7C9D8 EQ PUSH2 0xADE JUMPI POP DUP1 PUSH4 0x415548A6 EQ PUSH2 0x816 JUMPI DUP1 PUSH4 0x558A7297 EQ PUSH2 0x7B0 JUMPI DUP1 PUSH4 0x715018A6 EQ PUSH2 0x757 JUMPI DUP1 PUSH4 0x8DA5CB5B EQ PUSH2 0x72E JUMPI DUP1 PUSH4 0xA0577A03 EQ PUSH2 0x62A JUMPI DUP1 PUSH4 0xC07D332A EQ PUSH2 0x378 JUMPI DUP1 PUSH4 0xD97405F2 EQ PUSH2 0x1DF JUMPI DUP1 PUSH4 0xEF887706 EQ PUSH2 0x120 JUMPI PUSH4 0xF2FDE38B EQ PUSH2 0x8D JUMPI PUSH1 0x0 DUP1 REVERT JUMPDEST CALLVALUE PUSH2 0x11B JUMPI PUSH1 0x20 CALLDATASIZE PUSH1 0x3 NOT ADD SLT PUSH2 0x11B JUMPI PUSH2 0xA6 PUSH2 0xB19 JUMP JUMPDEST PUSH2 0xAE PUSH2 0xC1E JUMP JUMPDEST PUSH1 0x1 PUSH1 0x1 PUSH1 0xA0 SHL SUB SWAP1 DUP2 AND SWAP1 DUP2 ISZERO PUSH2 0x102 JUMPI PUSH1 0x0 SLOAD DUP3 PUSH12 0xFFFFFFFFFFFFFFFFFFFFFFFF PUSH1 0xA0 SHL DUP3 AND OR PUSH1 0x0 SSTORE AND PUSH32 0x8BE0079C531659141344CD1FD0A4F28419497F9722A3DAAFE3B4186F6B6457E0 PUSH1 0x0 DUP1 LOG3 STOP JUMPDEST PUSH1 0x40 MLOAD PUSH4 0x1E4FBDF7 PUSH1 0xE0 SHL DUP2 MSTORE PUSH1 0x0 PUSH1 0x4 DUP3 ADD MSTORE PUSH1 0x24 SWAP1 REVERT JUMPDEST PUSH1 0x0 DUP1 REVERT JUMPDEST CALLVALUE PUSH2 0x11B JUMPI PUSH2 0x12E CALLDATASIZE PUSH2 0xB2F JUMP JUMPDEST CALLER PUSH1 0x0 MSTORE PUSH1 0x3 PUSH1 0x20 MSTORE PUSH1 0xFF PUSH1 0x40 PUSH1 0x0 KECCAK256 SLOAD AND ISZERO PUSH2 0x1CD JUMPI PUSH1 0x1 PUSH1 0x1 PUSH1 0xA0 SHL SUB SWAP2 DUP3 AND PUSH1 0x0 DUP2 DUP2 MSTORE PUSH1 0x1 PUSH1 0x20 MSTORE PUSH1 0x40 SWAP1 KECCAK256 SLOAD SWAP1 SWAP3 AND ISZERO PUSH2 0x1BB JUMPI PUSH1 0x20 PUSH32 0xE383923203389967D779F7FA2340C10CC5A1A54B08D1BC722BA1A3825FFCC1CC SWAP2 DUP4 PUSH1 0x0 MSTORE PUSH1 0x1 DUP3 MSTORE PUSH2 0x1B0 DUP2 PUSH1 0x2 PUSH1 0x40 PUSH1 0x0 KECCAK256 ADD SWAP1 PUSH1 0xFF DUP1 NOT DUP4 SLOAD AND SWAP2 ISZERO ISZERO AND OR SWAP1 SSTORE JUMP JUMPDEST PUSH1 0x40 MLOAD SWAP1 ISZERO ISZERO DUP2 MSTORE LOG2 STOP JUMPDEST PUSH1 0x40 MLOAD PUSH4 0x480E5CFF PUSH1 0xE0 SHL DUP2 MSTORE PUSH1 0x4 SWAP1 REVERT JUMPDEST PUSH1 0x40 MLOAD PUSH4 0x1F0853C1 PUSH1 0xE2 SHL DUP2 MSTORE PUSH1 0x4 SWAP1 REVERT JUMPDEST CALLVALUE PUSH2 0x11B JUMPI PUSH1 0x20 CALLDATASIZE PUSH1 0x3 NOT ADD SLT PUSH2 0x11B JUMPI PUSH2 0x1F8 PUSH2 0xB19 JUMP JUMPDEST PUSH2 0x200 PUSH2 0xC1E JUMP JUMPDEST PUSH1 0x2 DUP1 SLOAD SWAP2 PUSH1 0x1 PUSH1 0x1 PUSH1 0xA0 SHL SUB SWAP1 DUP2 AND SWAP2 SWAP1 PUSH1 0x0 JUMPDEST DUP5 DUP2 LT PUSH2 0x2AC JUMPI DUP4 PUSH1 0x0 DUP5 DUP3 DUP3 MSTORE PUSH1 0x1 PUSH1 0x20 MSTORE PUSH1 0x40 DUP3 KECCAK256 DUP3 DUP2 SSTORE PUSH1 0x1 DUP2 ADD PUSH2 0x23D DUP2 SLOAD PUSH2 0xB5E JUMP JUMPDEST SWAP1 DUP2 PUSH2 0x26F JUMPI JUMPDEST POP POP ADD SSTORE PUSH32 0xC177086EDE7B67E51D90C0F53CDFCAEB997EB41C93505646F213A57C13FFB381 PUSH1 0x0 DUP1 LOG2 STOP JUMPDEST DUP2 PUSH1 0x1F DUP7 SWAP4 GT PUSH1 0x1 EQ PUSH2 0x286 JUMPI POP SSTORE JUMPDEST DUP5 DUP1 PUSH2 0x244 JUMP JUMPDEST SWAP1 DUP1 DUP4 SWAP2 DUP3 MSTORE PUSH2 0x2A5 PUSH1 0x1F PUSH1 0x20 DUP5 KECCAK256 SWAP5 ADD PUSH1 0x5 SHR DUP5 ADD PUSH1 0x1 DUP6 ADD PUSH2 0xC4A JUMP JUMPDEST SSTORE SSTORE PUSH2 0x27F JUMP JUMPDEST DUP1 DUP5 PUSH2 0x2B8 DUP5 SWAP4 PUSH2 0xC61 JUMP JUMPDEST SWAP4 SWAP1 SLOAD PUSH1 0x3 SWAP5 DUP6 SHL SHR AND EQ PUSH2 0x2D7 JUMPI JUMPDEST PUSH2 0x2D2 SWAP2 POP PUSH2 0xC98 JUMP JUMPDEST PUSH2 0x215 JUMP JUMPDEST PUSH1 0x0 NOT SWAP2 DUP7 DUP4 ADD DUP8 DUP2 GT PUSH2 0x362 JUMPI DUP5 PUSH2 0x2F2 PUSH2 0x321 SWAP3 PUSH2 0xC61 JUMP JUMPDEST SWAP1 SLOAD SWAP1 DUP5 SHL SHR AND PUSH2 0x302 DUP5 PUSH2 0xC61 JUMP JUMPDEST SWAP1 SWAP2 SWAP1 DUP3 SLOAD SWAP1 PUSH1 0x3 SHL SWAP2 PUSH1 0x1 DUP1 PUSH1 0xA0 SHL SUB DUP1 SWAP2 AND DUP4 SHL SWAP3 SHL NOT AND OR SWAP1 SSTORE JUMP JUMPDEST DUP5 SLOAD DUP1 ISZERO PUSH2 0x34C JUMPI PUSH2 0x2D2 SWAP4 DUP6 SWAP2 ADD SWAP2 PUSH2 0x33A DUP4 PUSH2 0xC61 JUMP JUMPDEST DUP2 SWAP4 SWAP2 SLOAD SWAP3 SHL SHL NOT AND SWAP1 SSTORE DUP5 SSTORE PUSH2 0x2C8 JUMP JUMPDEST PUSH4 0x4E487B71 PUSH1 0xE0 SHL PUSH1 0x0 MSTORE PUSH1 0x31 PUSH1 0x4 MSTORE PUSH1 0x24 PUSH1 0x0 REVERT JUMPDEST PUSH4 0x4E487B71 PUSH1 0xE0 SHL PUSH1 0x0 MSTORE PUSH1 0x11 PUSH1 0x4 MSTORE PUSH1 0x24 PUSH1 0x0 REVERT JUMPDEST CALLVALUE PUSH2 0x11B JUMPI PUSH1 0x0 CALLDATASIZE PUSH1 0x3 NOT ADD SLT PUSH2 0x11B JUMPI PUSH1 0x60 PUSH1 0x2 SLOAD SWAP1 PUSH1 0x0 SWAP2 JUMPDEST DUP1 DUP4 LT PUSH2 0x3B4 JUMPI PUSH1 0x40 MLOAD PUSH1 0x20 DUP1 DUP3 MSTORE DUP2 SWAP1 PUSH2 0x3B0 SWAP1 DUP3 ADD DUP6 PUSH2 0xBF9 JUMP JUMPDEST SUB SWAP1 RETURN JUMPDEST SWAP1 PUSH2 0x3BE DUP4 PUSH2 0xC61 JUMP JUMPDEST PUSH1 0x1 DUP1 PUSH1 0xA0 SHL SUB SWAP2 SLOAD SWAP1 PUSH1 0x3 SHL SHR AND DUP1 PUSH1 0x0 MSTORE PUSH1 0x1 SWAP1 PUSH1 0x20 SWAP1 DUP3 DUP3 MSTORE DUP3 PUSH1 0x40 PUSH1 0x0 KECCAK256 ADD SWAP3 DUP2 PUSH1 0x40 MLOAD SWAP1 PUSH1 0x60 DUP3 ADD DUP3 DUP2 LT PUSH8 0xFFFFFFFFFFFFFFFF DUP3 GT OR PUSH2 0x614 JUMPI PUSH1 0x40 MSTORE PUSH1 0x2A DUP3 MSTORE DUP5 DUP3 ADD SWAP4 PUSH1 0x40 CALLDATASIZE DUP7 CALLDATACOPY DUP3 MLOAD ISZERO PUSH2 0x5FE JUMPI PUSH1 0x30 DUP6 MSTORE8 DUP3 MLOAD DUP5 LT ISZERO PUSH2 0x5FE JUMPI PUSH1 0x21 SWAP2 PUSH1 0x78 DUP4 DUP6 ADD MSTORE8 PUSH1 0x29 JUMPDEST DUP6 DUP2 GT PUSH2 0x5B8 JUMPI POP PUSH2 0x599 JUMPI PUSH1 0x0 MSTORE DUP3 DUP6 MSTORE PUSH1 0xFF PUSH1 0x2 PUSH1 0x40 PUSH1 0x0 KECCAK256 ADD SLOAD AND PUSH1 0x0 EQ PUSH2 0x576 JUMPI PUSH1 0x40 MLOAD PUSH2 0x45F DUP2 PUSH2 0xB98 JUMP JUMPDEST PUSH1 0x4 DUP2 MSTORE PUSH4 0xE93D38B PUSH1 0xE2 SHL DUP7 DUP3 ADD MSTORE SWAP6 JUMPDEST PUSH1 0x40 MLOAD SWAP8 PUSH2 0x487 DUP2 MLOAD DUP1 SWAP3 DUP10 DUP1 DUP14 ADD SWAP2 ADD PUSH2 0xBD6 JUMP JUMPDEST DUP9 ADD PUSH1 0x11 PUSH1 0xF9 SHL DUP8 DUP3 ADD MSTORE PUSH1 0x0 SWAP5 DUP3 SLOAD SWAP3 PUSH2 0x4A1 DUP5 PUSH2 0xB5E JUMP JUMPDEST SWAP4 DUP3 DUP2 AND SWAP1 DUP2 ISZERO PUSH2 0x553 JUMPI POP PUSH1 0x1 EQ PUSH2 0x512 JUMPI JUMPDEST POP POP POP POP POP SWAP4 PUSH2 0x505 SWAP4 PUSH2 0x4F5 PUSH1 0x2 SWAP5 DUP9 SWAP8 SWAP5 PUSH2 0x4E4 PUSH2 0x50B SWAP11 SWAP7 PUSH2 0x111D PUSH1 0xF1 SHL DUP4 MSTORE MLOAD DUP1 SWAP4 DUP10 DUP5 ADD SWAP1 PUSH2 0xBD6 JUMP JUMPDEST ADD SWAP2 DUP4 MLOAD SWAP4 DUP5 SWAP2 DUP8 DUP6 ADD SWAP2 ADD PUSH2 0xBD6 JUMP JUMPDEST ADD SUB PUSH1 0x1D NOT DUP2 ADD DUP5 MSTORE ADD DUP3 PUSH2 0xBB4 JUMP JUMPDEST SWAP3 PUSH2 0xC98 JUMP JUMPDEST SWAP2 SWAP1 PUSH2 0x393 JUMP JUMPDEST SWAP1 SWAP2 SWAP3 SWAP4 SWAP5 SWAP6 POP PUSH1 0x0 MSTORE DUP7 PUSH1 0x0 KECCAK256 SWAP1 PUSH1 0x0 SWAP2 JUMPDEST DUP5 DUP4 LT PUSH2 0x540 JUMPI POP POP POP ADD ADD SWAP1 DUP4 PUSH2 0x4F5 DUP5 DUP4 PUSH2 0x4E4 PUSH2 0x4B5 JUMP JUMPDEST DUP1 SLOAD DUP5 DUP5 ADD DUP8 ADD MSTORE SWAP2 DUP9 ADD SWAP2 DUP2 ADD PUSH2 0x525 JUMP JUMPDEST PUSH1 0xFF NOT AND DUP5 DUP8 ADD MSTORE POP POP POP DUP2 ISZERO ISZERO SWAP1 SWAP2 MUL ADD ADD SWAP2 POP DUP4 PUSH2 0x4F5 DUP5 DUP4 PUSH2 0x4E4 PUSH2 0x4B5 JUMP JUMPDEST PUSH1 0x40 MLOAD PUSH2 0x582 DUP2 PUSH2 0xB98 JUMP JUMPDEST PUSH1 0x5 DUP2 MSTORE PUSH5 0xE93D1918B PUSH1 0xDA SHL DUP7 DUP3 ADD MSTORE SWAP6 PUSH2 0x471 JUMP JUMPDEST PUSH1 0x44 SWAP1 PUSH1 0x40 MLOAD SWAP1 PUSH4 0xE22E27EB PUSH1 0xE0 SHL DUP3 MSTORE PUSH1 0x4 DUP3 ADD MSTORE PUSH1 0x14 PUSH1 0x24 DUP3 ADD MSTORE REVERT JUMPDEST SWAP1 PUSH1 0xF DUP2 AND PUSH1 0x10 DUP2 LT ISZERO PUSH2 0x5FE JUMPI DUP6 MLOAD DUP4 LT ISZERO PUSH2 0x5FE JUMPI PUSH16 0x181899199A1A9B1B9C1CB0B131B232B3 PUSH1 0x81 SHL SWAP1 BYTE DUP6 DUP4 ADD DUP10 ADD MSTORE8 PUSH1 0x4 SHR SWAP1 DUP1 ISZERO PUSH2 0x362 JUMPI PUSH1 0x0 NOT ADD PUSH2 0x42E JUMP JUMPDEST PUSH4 0x4E487B71 PUSH1 0xE0 SHL PUSH1 0x0 MSTORE PUSH1 0x32 PUSH1 0x4 MSTORE PUSH1 0x24 PUSH1 0x0 REVERT JUMPDEST PUSH4 0x4E487B71 PUSH1 0xE0 SHL PUSH1 0x0 MSTORE PUSH1 0x41 PUSH1 0x4 MSTORE PUSH1 0x24 PUSH1 0x0 REVERT JUMPDEST CALLVALUE PUSH2 0x11B JUMPI PUSH1 0x20 DUP1 PUSH1 0x3 NOT CALLDATASIZE ADD SLT PUSH2 0x11B JUMPI PUSH1 0x1 PUSH1 0x1 PUSH1 0xA0 SHL SUB DUP1 PUSH2 0x64D PUSH2 0xB19 JUMP JUMPDEST AND PUSH1 0x0 MSTORE DUP2 PUSH1 0x1 SWAP2 DUP3 DUP3 MSTORE PUSH1 0x40 PUSH1 0x0 KECCAK256 SWAP1 DUP2 SLOAD AND SWAP3 DUP1 DUP3 ADD SWAP1 PUSH1 0x40 MLOAD SWAP4 DUP5 SWAP3 PUSH1 0x0 SWAP3 DUP2 SLOAD SWAP2 PUSH2 0x67B DUP4 PUSH2 0xB5E JUMP JUMPDEST DUP1 DUP8 MSTORE SWAP3 DUP3 DUP2 AND SWAP1 DUP2 ISZERO PUSH2 0x70D JUMPI POP PUSH1 0x1 EQ PUSH2 0x6D1 JUMPI JUMPDEST POP POP POP POP PUSH2 0x6C5 SWAP3 PUSH2 0x6AA PUSH1 0xFF SWAP4 PUSH1 0x2 SWAP4 SUB DUP7 PUSH2 0xBB4 JUMP JUMPDEST ADD SLOAD AND SWAP2 PUSH1 0x60 PUSH1 0x40 MLOAD SWAP6 DUP7 SWAP6 DUP7 MSTORE DUP6 ADD MSTORE PUSH1 0x60 DUP5 ADD SWAP1 PUSH2 0xBF9 JUMP JUMPDEST SWAP1 ISZERO ISZERO PUSH1 0x40 DUP4 ADD MSTORE SUB SWAP1 RETURN JUMPDEST PUSH1 0x0 SWAP1 DUP2 MSTORE DUP4 DUP2 KECCAK256 SWAP4 SWAP5 POP SWAP3 JUMPDEST DUP3 DUP5 LT PUSH2 0x6F7 JUMPI POP POP POP DUP3 ADD ADD DUP6 PUSH2 0x6AA DUP4 PUSH1 0x2 PUSH2 0x692 JUMP JUMPDEST DUP1 SLOAD DUP9 DUP6 ADD DUP7 ADD MSTORE DUP8 SWAP6 POP SWAP3 DUP5 ADD SWAP3 DUP2 ADD PUSH2 0x6DE JUMP JUMPDEST PUSH1 0xFF NOT AND DUP6 DUP9 ADD MSTORE POP POP POP ISZERO ISZERO PUSH1 0x5 SHL DUP4 ADD ADD SWAP1 POP DUP6 PUSH2 0x6AA DUP4 PUSH1 0x2 PUSH2 0x692 JUMP JUMPDEST CALLVALUE PUSH2 0x11B JUMPI PUSH1 0x0 CALLDATASIZE PUSH1 0x3 NOT ADD SLT PUSH2 0x11B JUMPI PUSH1 0x0 SLOAD PUSH1 0x40 MLOAD PUSH1 0x1 PUSH1 0x1 PUSH1 0xA0 SHL SUB SWAP1 SWAP2 AND DUP2 MSTORE PUSH1 0x20 SWAP1 RETURN JUMPDEST CALLVALUE PUSH2 0x11B JUMPI PUSH1 0x0 CALLDATASIZE PUSH1 0x3 NOT ADD SLT PUSH2 0x11B JUMPI PUSH2 0x770 PUSH2 0xC1E JUMP JUMPDEST PUSH1 0x0 DUP1 SLOAD PUSH1 0x1 PUSH1 0x1 PUSH1 0xA0 SHL SUB NOT DUP2 AND DUP3 SSTORE PUSH1 0x1 PUSH1 0x1 PUSH1 0xA0 SHL SUB AND PUSH32 0x8BE0079C531659141344CD1FD0A4F28419497F9722A3DAAFE3B4186F6B6457E0 DUP3 DUP1 LOG3 STOP JUMPDEST CALLVALUE PUSH2 0x11B JUMPI PUSH1 0x20 PUSH32 0x1618A22A3B00B9AC70FD5A82F1F5CDD8CB272BD0F1B740DDF7C26AB05881DD5B PUSH2 0x7E1 CALLDATASIZE PUSH2 0xB2F JUMP JUMPDEST SWAP3 SWAP1 PUSH2 0x7EB PUSH2 0xC1E JUMP JUMPDEST PUSH1 0x1 PUSH1 0x1 PUSH1 0xA0 SHL SUB AND PUSH1 0x0 DUP2 DUP2 MSTORE PUSH1 0x3 DUP4 MSTORE PUSH1 0x40 SWAP1 KECCAK256 DUP1 SLOAD PUSH1 0xFF NOT AND PUSH1 0xFF DUP7 ISZERO ISZERO AND OR SWAP1 SSTORE SWAP3 PUSH2 0x1B0 JUMP JUMPDEST CALLVALUE PUSH2 0x11B JUMPI PUSH1 0x40 CALLDATASIZE PUSH1 0x3 NOT ADD SLT PUSH2 0x11B JUMPI PUSH2 0x82F PUSH2 0xB19 JUMP JUMPDEST PUSH8 0xFFFFFFFFFFFFFFFF SWAP1 DUP2 PUSH1 0x24 CALLDATALOAD GT PUSH2 0x11B JUMPI CALLDATASIZE PUSH1 0x23 PUSH1 0x24 CALLDATALOAD ADD SLT ISZERO PUSH2 0x11B JUMPI PUSH1 0x24 CALLDATALOAD PUSH1 0x4 ADD CALLDATALOAD SWAP2 DUP1 DUP4 GT PUSH2 0x11B JUMPI CALLDATASIZE PUSH1 0x24 DUP5 DUP2 CALLDATALOAD ADD ADD GT PUSH2 0x11B JUMPI PUSH2 0x873 PUSH2 0xC1E JUMP JUMPDEST PUSH1 0x1 PUSH1 0x1 PUSH1 0xA0 SHL SUB DUP3 DUP2 AND PUSH1 0x0 SWAP1 DUP2 MSTORE PUSH1 0x1 PUSH1 0x20 MSTORE PUSH1 0x40 SWAP1 KECCAK256 SLOAD AND PUSH2 0xACC JUMPI PUSH1 0x40 MLOAD SWAP1 PUSH1 0x60 DUP3 ADD DUP3 DUP2 LT DUP3 DUP3 GT OR PUSH2 0x614 JUMPI PUSH1 0x40 SWAP1 DUP2 MSTORE PUSH1 0x1 PUSH1 0x1 PUSH1 0xA0 SHL SUB DUP5 AND DUP4 MSTORE MLOAD PUSH2 0x8CB PUSH1 0x1F DUP7 ADD PUSH1 0x1F NOT AND PUSH1 0x20 ADD DUP3 PUSH2 0xBB4 JUMP JUMPDEST DUP5 DUP2 MSTORE DUP5 PUSH1 0x24 DUP1 CALLDATALOAD ADD PUSH1 0x20 DUP4 ADD CALLDATACOPY PUSH1 0x0 DUP2 DUP7 ADD PUSH1 0x20 SWAP1 DUP2 ADD DUP3 SWAP1 MSTORE DUP5 DUP2 ADD SWAP3 DUP4 MSTORE PUSH1 0x40 DUP1 DUP7 ADD DUP4 DUP2 MSTORE PUSH1 0x1 PUSH1 0x1 PUSH1 0xA0 SHL SUB DUP9 DUP2 AND DUP6 MSTORE PUSH1 0x1 SWAP4 DUP5 SWAP1 MSTORE SWAP2 SWAP1 SWAP4 KECCAK256 SWAP6 MLOAD DUP7 SLOAD PUSH1 0x1 PUSH1 0x1 PUSH1 0xA0 SHL SUB NOT AND SWAP2 AND OR DUP6 SSTORE SWAP2 MLOAD DUP1 MLOAD SWAP2 SWAP4 SWAP3 DUP6 ADD SWAP3 DUP3 GT PUSH2 0x614 JUMPI PUSH2 0x938 DUP4 SLOAD PUSH2 0xB5E JUMP JUMPDEST PUSH1 0x1F DUP2 GT PUSH2 0xA8F JUMPI JUMPDEST POP PUSH1 0x20 SWAP1 PUSH1 0x1F DUP4 GT PUSH1 0x1 EQ PUSH2 0xA1F JUMPI SWAP2 DUP1 PUSH1 0x2 SWAP5 SWAP3 PUSH2 0x98F SWAP8 SWAP7 SWAP5 PUSH1 0x0 SWAP3 PUSH2 0xA14 JUMPI JUMPDEST POP POP DUP2 PUSH1 0x1 SHL SWAP2 PUSH1 0x0 NOT SWAP1 PUSH1 0x3 SHL SHR NOT AND OR SWAP1 SSTORE JUMPDEST MLOAD ISZERO ISZERO SWAP2 ADD SWAP1 PUSH1 0xFF DUP1 NOT DUP4 SLOAD AND SWAP2 ISZERO ISZERO AND OR SWAP1 SSTORE JUMP JUMPDEST PUSH1 0x2 SLOAD SWAP1 PUSH9 0x10000000000000000 DUP3 LT ISZERO PUSH2 0x614 JUMPI PUSH2 0x9D9 DUP2 PUSH2 0x302 DUP5 PUSH1 0x1 PUSH32 0x182A3B2C0D2E06374ABF1E63A9DEAA7FE39E88C05AE13745E2FA8C1486FB50F3 SWAP7 ADD PUSH1 0x2 SSTORE PUSH2 0xC61 JUMP JUMPDEST PUSH1 0x40 DUP1 MLOAD DUP1 SWAP3 PUSH1 0x20 DUP3 MSTORE DUP6 PUSH1 0x20 DUP4 ADD MSTORE DUP6 PUSH1 0x24 DUP1 CALLDATALOAD ADD DUP5 DUP5 ADD CALLDATACOPY PUSH1 0x0 DUP3 DUP8 ADD DUP5 ADD MSTORE PUSH1 0x1 PUSH1 0x1 PUSH1 0xA0 SHL SUB AND SWAP5 PUSH1 0x1F ADD PUSH1 0x1F NOT AND DUP2 ADD SUB ADD SWAP1 LOG2 STOP JUMPDEST ADD MLOAD SWAP1 POP DUP10 DUP1 PUSH2 0x964 JUMP JUMPDEST SWAP1 PUSH1 0x1F NOT DUP4 AND SWAP2 DUP5 PUSH1 0x0 MSTORE PUSH1 0x20 PUSH1 0x0 KECCAK256 SWAP3 PUSH1 0x0 JUMPDEST DUP2 DUP2 LT PUSH2 0xA77 JUMPI POP SWAP3 PUSH1 0x1 SWAP3 DUP6 SWAP3 PUSH2 0x98F SWAP10 SWAP9 SWAP7 PUSH1 0x2 SWAP9 SWAP7 LT PUSH2 0xA5E JUMPI JUMPDEST POP POP POP DUP2 SHL ADD SWAP1 SSTORE PUSH2 0x979 JUMP JUMPDEST ADD MLOAD PUSH1 0x0 NOT PUSH1 0xF8 DUP5 PUSH1 0x3 SHL AND SHR NOT AND SWAP1 SSTORE DUP10 DUP1 DUP1 PUSH2 0xA51 JUMP JUMPDEST SWAP3 SWAP4 PUSH1 0x20 PUSH1 0x1 DUP2 SWAP3 DUP8 DUP7 ADD MLOAD DUP2 SSTORE ADD SWAP6 ADD SWAP4 ADD PUSH2 0xA33 JUMP JUMPDEST PUSH2 0xABC SWAP1 DUP5 PUSH1 0x0 MSTORE PUSH1 0x20 PUSH1 0x0 KECCAK256 PUSH1 0x1F DUP6 ADD PUSH1 0x5 SHR DUP2 ADD SWAP2 PUSH1 0x20 DUP7 LT PUSH2 0xAC2 JUMPI JUMPDEST PUSH1 0x1F ADD PUSH1 0x5 SHR ADD SWAP1 PUSH2 0xC4A JUMP JUMPDEST DUP8 PUSH2 0x941 JUMP JUMPDEST SWAP1 SWAP2 POP DUP2 SWAP1 PUSH2 0xAAF JUMP JUMPDEST PUSH1 0x40 MLOAD PUSH4 0x673CC4BD PUSH1 0xE0 SHL DUP2 MSTORE PUSH1 0x4 SWAP1 REVERT JUMPDEST CALLVALUE PUSH2 0x11B JUMPI PUSH1 0x20 CALLDATASIZE PUSH1 0x3 NOT ADD SLT PUSH2 0x11B JUMPI PUSH1 0x20 SWAP1 PUSH1 0x1 PUSH1 0x1 PUSH1 0xA0 SHL SUB PUSH2 0xB02 PUSH2 0xB19 JUMP JUMPDEST AND PUSH1 0x0 MSTORE PUSH1 0x3 DUP3 MSTORE PUSH1 0xFF PUSH1 0x40 PUSH1 0x0 KECCAK256 SLOAD AND ISZERO ISZERO DUP2 MSTORE RETURN JUMPDEST PUSH1 0x4 CALLDATALOAD SWAP1 PUSH1 0x1 PUSH1 0x1 PUSH1 0xA0 SHL SUB DUP3 AND DUP3 SUB PUSH2 0x11B JUMPI JUMP JUMPDEST PUSH1 0x40 SWAP1 PUSH1 0x3 NOT ADD SLT PUSH2 0x11B JUMPI PUSH1 0x4 CALLDATALOAD PUSH1 0x1 PUSH1 0x1 PUSH1 0xA0 SHL SUB DUP2 AND DUP2 SUB PUSH2 0x11B JUMPI SWAP1 PUSH1 0x24 CALLDATALOAD DUP1 ISZERO ISZERO DUP2 SUB PUSH2 0x11B JUMPI SWAP1 JUMP JUMPDEST SWAP1 PUSH1 0x1 DUP3 DUP2 SHR SWAP3 AND DUP1 ISZERO PUSH2 0xB8E JUMPI JUMPDEST PUSH1 0x20 DUP4 LT EQ PUSH2 0xB78 JUMPI JUMP JUMPDEST PUSH4 0x4E487B71 PUSH1 0xE0 SHL PUSH1 0x0 MSTORE PUSH1 0x22 PUSH1 0x4 MSTORE PUSH1 0x24 PUSH1 0x0 REVERT JUMPDEST SWAP2 PUSH1 0x7F AND SWAP2 PUSH2 0xB6D JUMP JUMPDEST PUSH1 0x40 DUP2 ADD SWAP1 DUP2 LT PUSH8 0xFFFFFFFFFFFFFFFF DUP3 GT OR PUSH2 0x614 JUMPI PUSH1 0x40 MSTORE JUMP JUMPDEST SWAP1 PUSH1 0x1F DUP1 NOT SWAP2 ADD AND DUP2 ADD SWAP1 DUP2 LT PUSH8 0xFFFFFFFFFFFFFFFF DUP3 GT OR PUSH2 0x614 JUMPI PUSH1 0x40 MSTORE JUMP JUMPDEST PUSH1 0x0 JUMPDEST DUP4 DUP2 LT PUSH2 0xBE9 JUMPI POP POP PUSH1 0x0 SWAP2 ADD MSTORE JUMP JUMPDEST DUP2 DUP2 ADD MLOAD DUP4 DUP3 ADD MSTORE PUSH1 0x20 ADD PUSH2 0xBD9 JUMP JUMPDEST SWAP1 PUSH1 0x20 SWAP2 PUSH2 0xC12 DUP2 MLOAD DUP1 SWAP3 DUP2 DUP6 MSTORE DUP6 DUP1 DUP7 ADD SWAP2 ADD PUSH2 0xBD6 JUMP JUMPDEST PUSH1 0x1F ADD PUSH1 0x1F NOT AND ADD ADD SWAP1 JUMP JUMPDEST PUSH1 0x0 SLOAD PUSH1 0x1 PUSH1 0x1 PUSH1 0xA0 SHL SUB AND CALLER SUB PUSH2 0xC32 JUMPI JUMP JUMPDEST PUSH1 0x40 MLOAD PUSH4 0x118CDAA7 PUSH1 0xE0 SHL DUP2 MSTORE CALLER PUSH1 0x4 DUP3 ADD MSTORE PUSH1 0x24 SWAP1 REVERT JUMPDEST DUP2 DUP2 LT PUSH2 0xC55 JUMPI POP POP JUMP JUMPDEST PUSH1 0x0 DUP2 SSTORE PUSH1 0x1 ADD PUSH2 0xC4A JUMP JUMPDEST PUSH1 0x2 SLOAD DUP2 LT ISZERO PUSH2 0x5FE JUMPI PUSH1 0x2 PUSH1 0x0 MSTORE PUSH32 0x405787FA12A823E0F2B7631CC41B3BA8828B3321CA811111FA75CD3AA3BB5ACE ADD SWAP1 PUSH1 0x0 SWAP1 JUMP JUMPDEST PUSH1 0x0 NOT DUP2 EQ PUSH2 0x362 JUMPI PUSH1 0x1 ADD SWAP1 JUMP INVALID LOG2 PUSH5 0x6970667358 0x22 SLT KECCAK256 LOG0 0xDD GASLIMIT PUSH25 0xD669219753B3A4263E66226FA2A81DCFC5657452CB2D2BB6D0 0xB0 NUMBER 0x2E PUSH5 0x736F6C6343 STOP ADDMOD EQ STOP CALLER "
        },
        "methodIdentifiers": {
          "lights(address)": "a0577a03",
          "makePrompt()": "c07d332a",
          "operators(address)": "13e7c9d8",
          "owner()": "8da5cb5b",
          "registerLight(address,string)": "415548a6",
          "removeLight(address)": "d97405f2",
          "renounceOwnership()": "715018a6",
          "setOperator(address,bool)": "558a7297",
          "toggleLight(address,bool)": "ef887706",
          "transferOwnership(address)": "f2fde38b"
        }
      }
    }
  }
}